{
  "contractName": "Amazon",
  "abi": [
    {
      "inputs": [
        {
          "internalType": "address",
          "name": "",
          "type": "address"
        },
        {
          "internalType": "uint256",
          "name": "",
          "type": "uint256"
        }
      ],
      "name": "CartItemsOfOwner",
      "outputs": [
        {
          "internalType": "string",
          "name": "itemName",
          "type": "string"
        },
        {
          "internalType": "uint256",
          "name": "Quantity",
          "type": "uint256"
        },
        {
          "internalType": "bool",
          "name": "inStoke",
          "type": "bool"
        },
        {
          "internalType": "bool",
          "name": "isGeft",
          "type": "bool"
        }
      ],
      "stateMutability": "view",
      "type": "function",
      "constant": true
    },
    {
      "inputs": [
        {
          "internalType": "address",
          "name": "",
          "type": "address"
        },
        {
          "internalType": "uint256",
          "name": "",
          "type": "uint256"
        }
      ],
      "name": "UsersOrders",
      "outputs": [
        {
          "internalType": "string",
          "name": "itemName",
          "type": "string"
        },
        {
          "internalType": "uint256",
          "name": "Quantity",
          "type": "uint256"
        },
        {
          "internalType": "string",
          "name": "addressTo",
          "type": "string"
        },
        {
          "internalType": "string",
          "name": "message",
          "type": "string"
        },
        {
          "internalType": "bool",
          "name": "isGeft",
          "type": "bool"
        }
      ],
      "stateMutability": "view",
      "type": "function",
      "constant": true
    },
    {
      "inputs": [
        {
          "internalType": "uint256",
          "name": "",
          "type": "uint256"
        }
      ],
      "name": "UsersWhoPushItemsToCart",
      "outputs": [
        {
          "internalType": "address",
          "name": "",
          "type": "address"
        }
      ],
      "stateMutability": "view",
      "type": "function",
      "constant": true
    },
    {
      "inputs": [
        {
          "internalType": "uint256",
          "name": "",
          "type": "uint256"
        }
      ],
      "name": "UsersWhoRequested",
      "outputs": [
        {
          "internalType": "address",
          "name": "",
          "type": "address"
        }
      ],
      "stateMutability": "view",
      "type": "function",
      "constant": true
    },
    {
      "inputs": [
        {
          "internalType": "address[]",
          "name": "_newStaff",
          "type": "address[]"
        }
      ],
      "name": "addStaff",
      "outputs": [],
      "stateMutability": "nonpayable",
      "type": "function"
    },
    {
      "inputs": [],
      "name": "admin",
      "outputs": [
        {
          "internalType": "address",
          "name": "",
          "type": "address"
        }
      ],
      "stateMutability": "view",
      "type": "function",
      "constant": true
    },
    {
      "inputs": [
        {
          "internalType": "address",
          "name": "_newAdmin",
          "type": "address"
        }
      ],
      "name": "changeAdmin",
      "outputs": [],
      "stateMutability": "nonpayable",
      "type": "function"
    },
    {
      "inputs": [
        {
          "internalType": "string",
          "name": "",
          "type": "string"
        }
      ],
      "name": "itemsInStoke",
      "outputs": [
        {
          "internalType": "uint256",
          "name": "",
          "type": "uint256"
        }
      ],
      "stateMutability": "view",
      "type": "function",
      "constant": true
    },
    {
      "inputs": [],
      "name": "price",
      "outputs": [
        {
          "internalType": "uint256",
          "name": "",
          "type": "uint256"
        }
      ],
      "stateMutability": "view",
      "type": "function",
      "constant": true
    },
    {
      "inputs": [
        {
          "internalType": "address",
          "name": "_Staff",
          "type": "address"
        }
      ],
      "name": "removeStaff",
      "outputs": [],
      "stateMutability": "nonpayable",
      "type": "function"
    },
    {
      "inputs": [
        {
          "internalType": "address",
          "name": "",
          "type": "address"
        }
      ],
      "name": "staff",
      "outputs": [
        {
          "internalType": "bool",
          "name": "",
          "type": "bool"
        }
      ],
      "stateMutability": "view",
      "type": "function",
      "constant": true
    },
    {
      "inputs": [
        {
          "internalType": "string[]",
          "name": "_itemsName",
          "type": "string[]"
        },
        {
          "internalType": "uint256[]",
          "name": "_ItemsPrice",
          "type": "uint256[]"
        }
      ],
      "name": "addItemsToStoke",
      "outputs": [],
      "stateMutability": "nonpayable",
      "type": "function"
    },
    {
      "inputs": [
        {
          "internalType": "string",
          "name": "_itemName",
          "type": "string"
        }
      ],
      "name": "removeItemFromStoke",
      "outputs": [],
      "stateMutability": "nonpayable",
      "type": "function"
    },
    {
      "inputs": [
        {
          "internalType": "string",
          "name": "_itemName",
          "type": "string"
        },
        {
          "internalType": "uint256",
          "name": "_Quantity",
          "type": "uint256"
        },
        {
          "internalType": "bool",
          "name": "_isGeft",
          "type": "bool"
        }
      ],
      "name": "addItemsToCart",
      "outputs": [],
      "stateMutability": "nonpayable",
      "type": "function"
    },
    {
      "inputs": [
        {
          "internalType": "string",
          "name": "_itemName",
          "type": "string"
        }
      ],
      "name": "removetemsFromCart",
      "outputs": [],
      "stateMutability": "nonpayable",
      "type": "function"
    },
    {
      "inputs": [
        {
          "internalType": "string",
          "name": "_itemName",
          "type": "string"
        },
        {
          "internalType": "uint256",
          "name": "_Quantity",
          "type": "uint256"
        }
      ],
      "name": "changeQuantity",
      "outputs": [],
      "stateMutability": "nonpayable",
      "type": "function"
    },
    {
      "inputs": [
        {
          "internalType": "string",
          "name": "_itemName",
          "type": "string"
        },
        {
          "internalType": "bool",
          "name": "_isGeft",
          "type": "bool"
        }
      ],
      "name": "setGift",
      "outputs": [],
      "stateMutability": "nonpayable",
      "type": "function"
    },
    {
      "inputs": [
        {
          "internalType": "address",
          "name": "_user",
          "type": "address"
        }
      ],
      "name": "isUsersHasItemsInCart",
      "outputs": [
        {
          "internalType": "bool",
          "name": "_hasItemsInCart",
          "type": "bool"
        }
      ],
      "stateMutability": "view",
      "type": "function",
      "constant": true
    },
    {
      "inputs": [
        {
          "internalType": "address",
          "name": "_userAddress",
          "type": "address"
        }
      ],
      "name": "getCartItemsOfOwner",
      "outputs": [
        {
          "components": [
            {
              "internalType": "string",
              "name": "itemName",
              "type": "string"
            },
            {
              "internalType": "uint256",
              "name": "Quantity",
              "type": "uint256"
            },
            {
              "internalType": "bool",
              "name": "inStoke",
              "type": "bool"
            },
            {
              "internalType": "bool",
              "name": "isGeft",
              "type": "bool"
            }
          ],
          "internalType": "struct Amazon.CartItem[]",
          "name": "_CartItemsOfOwner",
          "type": "tuple[]"
        }
      ],
      "stateMutability": "view",
      "type": "function",
      "constant": true
    },
    {
      "inputs": [
        {
          "internalType": "address",
          "name": "_user",
          "type": "address"
        }
      ],
      "name": "isUsersHasOrders",
      "outputs": [
        {
          "internalType": "bool",
          "name": "_UsersHasOrders",
          "type": "bool"
        }
      ],
      "stateMutability": "view",
      "type": "function",
      "constant": true
    },
    {
      "inputs": [
        {
          "internalType": "address",
          "name": "_userAddress",
          "type": "address"
        }
      ],
      "name": "getUsersOrders",
      "outputs": [
        {
          "components": [
            {
              "internalType": "string",
              "name": "itemName",
              "type": "string"
            },
            {
              "internalType": "uint256",
              "name": "Quantity",
              "type": "uint256"
            },
            {
              "internalType": "string",
              "name": "addressTo",
              "type": "string"
            },
            {
              "internalType": "string",
              "name": "message",
              "type": "string"
            },
            {
              "internalType": "bool",
              "name": "isGeft",
              "type": "bool"
            }
          ],
          "internalType": "struct Amazon.order[]",
          "name": "_orders",
          "type": "tuple[]"
        }
      ],
      "stateMutability": "view",
      "type": "function",
      "constant": true
    },
    {
      "inputs": [
        {
          "internalType": "string",
          "name": "_itemName",
          "type": "string"
        },
        {
          "internalType": "string",
          "name": "_DeliveryAddress",
          "type": "string"
        },
        {
          "internalType": "string",
          "name": "_message",
          "type": "string"
        },
        {
          "internalType": "uint256",
          "name": "_Quantity",
          "type": "uint256"
        },
        {
          "internalType": "bool",
          "name": "isGeft",
          "type": "bool"
        }
      ],
      "name": "buyItem",
      "outputs": [],
      "stateMutability": "payable",
      "type": "function",
      "payable": true
    },
    {
      "inputs": [
        {
          "internalType": "string[]",
          "name": "_itemsName",
          "type": "string[]"
        },
        {
          "internalType": "string[]",
          "name": "_DeliveryAddress",
          "type": "string[]"
        },
        {
          "internalType": "string[]",
          "name": "_messages",
          "type": "string[]"
        },
        {
          "internalType": "uint256[]",
          "name": "_Quantitys",
          "type": "uint256[]"
        },
        {
          "internalType": "bool[]",
          "name": "_isGeft",
          "type": "bool[]"
        }
      ],
      "name": "buyItems",
      "outputs": [],
      "stateMutability": "payable",
      "type": "function",
      "payable": true
    },
    {
      "inputs": [
        {
          "internalType": "address",
          "name": "_address",
          "type": "address"
        },
        {
          "internalType": "string",
          "name": "_itemName",
          "type": "string"
        }
      ],
      "name": "requestSent",
      "outputs": [],
      "stateMutability": "nonpayable",
      "type": "function"
    },
    {
      "inputs": [],
      "name": "getProfits",
      "outputs": [],
      "stateMutability": "nonpayable",
      "type": "function"
    }
  ],
  "bytecode": "0x608060405234801561001057600080fd5b50336000806101000a81548173ffffffffffffffffffffffffffffffffffffffff021916908373ffffffffffffffffffffffffffffffffffffffff1602179055506001600260003373ffffffffffffffffffffffffffffffffffffffff1673ffffffffffffffffffffffffffffffffffffffff16815260200190815260200160002060006101000a81548160ff021916908315150217905550652d79883d2000600181905550613d9a806100c56000396000f3fe6080604052600436106101665760003560e01c806393ed823e116100d1578063cb67e4261161008a578063e83e383e11610064578063e83e383e14610559578063ec7acf5714610582578063edcce122146105bf578063f851a440146105e857610166565b8063cb67e426146104ca578063de360ce8146104f3578063e5cd163e1461051c57610166565b806393ed823e1461037e578063a035b1fe146103bb578063b13833a5146103e6578063b93fcb1c14610427578063c4522c9214610464578063ca3af7ac1461048d57610166565b80636a47fa77116101235780636a47fa771461025d5780636ddf30861461029d5780636facbfde146102da57806370ecbcbe146103035780638c8ee7fa1461032c5780638f2839701461035557610166565b8063228a3da91461016b57806335e23346146101875780633ad15258146101a35780633e3c6093146101ba5780634f83158a146101e357806369f729d114610220575b600080fd5b61018560048036038101906101809190612a28565b610613565b005b6101a1600480360381019061019c9190612d63565b6107dd565b005b3480156101af57600080fd5b506101b8610ae2565b005b3480156101c657600080fd5b506101e160048036038101906101dc9190612ec5565b610bb9565b005b3480156101ef57600080fd5b5061020a60048036038101906102059190612f70565b610cec565b6040516102179190612fac565b60405180910390f35b34801561022c57600080fd5b5061024760048036038101906102429190612fc7565b610d0c565b6040516102549190613003565b60405180910390f35b34801561026957600080fd5b50610284600480360381019061027f919061301e565b610d4b565b60405161029494939291906130f5565b60405180910390f35b3480156102a957600080fd5b506102c460048036038101906102bf9190612fc7565b610e3a565b6040516102d19190613003565b60405180910390f35b3480156102e657600080fd5b5061030160048036038101906102fc9190613141565b610e79565b005b34801561030f57600080fd5b5061032a600480360381019061032591906131b0565b610ffe565b005b34801561033857600080fd5b50610353600480360381019061034e919061320c565b611261565b005b34801561036157600080fd5b5061037c60048036038101906103779190612f70565b611312565b005b34801561038a57600080fd5b506103a560048036038101906103a09190612f70565b61143b565b6040516103b291906133e2565b60405180910390f35b3480156103c757600080fd5b506103d06115ba565b6040516103dd9190613404565b60405180910390f35b3480156103f257600080fd5b5061040d6004803603810190610408919061301e565b6115c0565b60405161041e95949392919061341f565b60405180910390f35b34801561043357600080fd5b5061044e6004803603810190610449919061320c565b6117b8565b60405161045b9190613404565b60405180910390f35b34801561047057600080fd5b5061048b60048036038101906104869190612f70565b6117e6565b005b34801561049957600080fd5b506104b460048036038101906104af9190612f70565b6118c6565b6040516104c19190612fac565b60405180910390f35b3480156104d657600080fd5b506104f160048036038101906104ec9190613487565b61196a565b005b3480156104ff57600080fd5b5061051a600480360381019061051591906134e3565b611bb6565b005b34801561052857600080fd5b50610543600480360381019061053e9190612f70565b611cbd565b6040516105509190612fac565b60405180910390f35b34801561056557600080fd5b50610580600480360381019061057b919061355b565b611d61565b005b34801561058e57600080fd5b506105a960048036038101906105a49190612f70565b611fbe565b6040516105b691906136fd565b60405180910390f35b3480156105cb57600080fd5b506105e660048036038101906105e1919061320c565b612246565b005b3480156105f457600080fd5b506105fd612459565b60405161060a9190613003565b60405180910390f35b6000600386604051610625919061375b565b9081526020016040518091039020541161063e57600080fd5b8160038660405161064f919061375b565b90815260200160405180910390205461066891906137a1565b34101561067457600080fd5b600760003373ffffffffffffffffffffffffffffffffffffffff1673ffffffffffffffffffffffffffffffffffffffff1681526020019081526020016000206040518060a001604052808781526020018481526020018681526020018581526020018315158152509080600181540180825580915050600190039060005260206000209060050201600090919091909150600082015181600001908161071a9190613a07565b5060208201518160010155604082015181600201908161073a9190613a07565b5060608201518160030190816107509190613a07565b5060808201518160040160006101000a81548160ff02191690831515021790555050506006339080600181540180825580915050600190039060005260206000200160009091909190916101000a81548173ffffffffffffffffffffffffffffffffffffffff021916908373ffffffffffffffffffffffffffffffffffffffff1602179055505050505050565b60008060005b87518110156108ba578481815181106107ff576107fe613ad9565b5b6020026020010151600389838151811061081c5761081b613ad9565b5b6020026020010151604051610831919061375b565b90815260200160405180910390205461084a91906137a1565b826108559190613b08565b91506000600389838151811061086e5761086d613ad9565b5b6020026020010151604051610883919061375b565b90815260200160405180910390205411156108a75782806108a390613b5e565b9350505b80806108b290613b5e565b9150506107e3565b50865182146108c857600080fd5b803410156108d557600080fd5b60005b8751811015610a7557600760003373ffffffffffffffffffffffffffffffffffffffff1673ffffffffffffffffffffffffffffffffffffffff1681526020019081526020016000206040518060a001604052808a848151811061093e5761093d613ad9565b5b6020026020010151815260200187848151811061095e5761095d613ad9565b5b6020026020010151815260200189848151811061097e5761097d613ad9565b5b6020026020010151815260200188848151811061099e5761099d613ad9565b5b602002602001015181526020018684815181106109be576109bd613ad9565b5b6020026020010151151581525090806001815401808255809150506001900390600052602060002090600502016000909190919091506000820151816000019081610a099190613a07565b50602082015181600101556040820151816002019081610a299190613a07565b506060820151816003019081610a3f9190613a07565b5060808201518160040160006101000a81548160ff02191690831515021790555050508080610a6d90613b5e565b9150506108d8565b506006339080600181540180825580915050600190039060005260206000200160009091909190916101000a81548173ffffffffffffffffffffffffffffffffffffffff021916908373ffffffffffffffffffffffffffffffffffffffff16021790555050505050505050565b60008054906101000a900473ffffffffffffffffffffffffffffffffffffffff1673ffffffffffffffffffffffffffffffffffffffff163373ffffffffffffffffffffffffffffffffffffffff1614610b70576040517f08c379a0000000000000000000000000000000000000000000000000000000008152600401610b6790613c18565b60405180910390fd5b3373ffffffffffffffffffffffffffffffffffffffff166108fc479081150290604051600060405180830381858888f19350505050158015610bb6573d6000803e3d6000fd5b50565b60008054906101000a900473ffffffffffffffffffffffffffffffffffffffff1673ffffffffffffffffffffffffffffffffffffffff163373ffffffffffffffffffffffffffffffffffffffff1614610c47576040517f08c379a0000000000000000000000000000000000000000000000000000000008152600401610c3e90613c18565b60405180910390fd5b60005b82829050811015610ce757600160026000858585818110610c6e57610c6d613ad9565b5b9050602002016020810190610c839190612f70565b73ffffffffffffffffffffffffffffffffffffffff1673ffffffffffffffffffffffffffffffffffffffff16815260200190815260200160002060006101000a81548160ff0219169083151502179055508080610cdf90613b5e565b915050610c4a565b505050565b60026020528060005260406000206000915054906101000a900460ff1681565b60048181548110610d1c57600080fd5b906000526020600020016000915054906101000a900473ffffffffffffffffffffffffffffffffffffffff1681565b60056020528160005260406000208181548110610d6757600080fd5b906000526020600020906003020160009150915050806000018054610d8b9061382a565b80601f0160208091040260200160405190810160405280929190818152602001828054610db79061382a565b8015610e045780601f10610dd957610100808354040283529160200191610e04565b820191906000526020600020905b815481529060010190602001808311610de757829003601f168201915b5050505050908060010154908060020160009054906101000a900460ff16908060020160019054906101000a900460ff16905084565b60068181548110610e4a57600080fd5b906000526020600020016000915054906101000a900473ffffffffffffffffffffffffffffffffffffffff1681565b600080600385604051610e8c919061375b565b9081526020016040518091039020541115610ea657600190505b600560003373ffffffffffffffffffffffffffffffffffffffff1673ffffffffffffffffffffffffffffffffffffffff1681526020019081526020016000206040518060800160405280868152602001858152602001831515815260200184151581525090806001815401808255809150506001900390600052602060002090600302016000909190919091506000820151816000019081610f489190613a07565b506020820151816001015560408201518160020160006101000a81548160ff02191690831515021790555060608201518160020160016101000a81548160ff02191690831515021790555050506004339080600181540180825580915050600190039060005260206000200160009091909190916101000a81548173ffffffffffffffffffffffffffffffffffffffff021916908373ffffffffffffffffffffffffffffffffffffffff16021790555050505050565b6000600560003373ffffffffffffffffffffffffffffffffffffffff1673ffffffffffffffffffffffffffffffffffffffff168152602001908152602001600020805490501161104d57600080fd5b60005b600560003373ffffffffffffffffffffffffffffffffffffffff1673ffffffffffffffffffffffffffffffffffffffff1681526020019081526020016000208054905081101561125c57826040516020016110ab919061375b565b60405160208183030381529060405280519060200120600560003373ffffffffffffffffffffffffffffffffffffffff1673ffffffffffffffffffffffffffffffffffffffff168152602001908152602001600020828154811061111257611111613ad9565b5b90600052602060002090600302016000016040516020016111339190613cbb565b604051602081830303815290604052805190602001201480156111c95750811515600560003373ffffffffffffffffffffffffffffffffffffffff1673ffffffffffffffffffffffffffffffffffffffff16815260200190815260200160002082815481106111a5576111a4613ad9565b5b906000526020600020906003020160020160019054906101000a900460ff16151514155b156112495781600560003373ffffffffffffffffffffffffffffffffffffffff1673ffffffffffffffffffffffffffffffffffffffff16815260200190815260200160002082815481106112205761121f613ad9565b5b906000526020600020906003020160020160016101000a81548160ff0219169083151502179055505b808061125490613b5e565b915050611050565b505050565b600260003373ffffffffffffffffffffffffffffffffffffffff1673ffffffffffffffffffffffffffffffffffffffff16815260200190815260200160002060009054906101000a900460ff166112ed576040517f08c379a00000000000000000000000000000000000000000000000000000000081526004016112e490613d44565b60405180910390fd5b6003816040516112fd919061375b565b90815260200160405180910390206000905550565b60008054906101000a900473ffffffffffffffffffffffffffffffffffffffff1673ffffffffffffffffffffffffffffffffffffffff163373ffffffffffffffffffffffffffffffffffffffff16146113a0576040517f08c379a000000000000000000000000000000000000000000000000000000000815260040161139790613c18565b60405180910390fd5b806000806101000a81548173ffffffffffffffffffffffffffffffffffffffff021916908373ffffffffffffffffffffffffffffffffffffffff1602179055506001600260008373ffffffffffffffffffffffffffffffffffffffff1673ffffffffffffffffffffffffffffffffffffffff16815260200190815260200160002060006101000a81548160ff02191690831515021790555050565b6060611446826118c6565b156115b557600560008373ffffffffffffffffffffffffffffffffffffffff1673ffffffffffffffffffffffffffffffffffffffff168152602001908152602001600020805480602002602001604051908101604052809291908181526020016000905b828210156115ae57838290600052602060002090600302016040518060800160405290816000820180546114dd9061382a565b80601f01602080910402602001604051908101604052809291908181526020018280546115099061382a565b80156115565780601f1061152b57610100808354040283529160200191611556565b820191906000526020600020905b81548152906001019060200180831161153957829003601f168201915b50505050508152602001600182015481526020016002820160009054906101000a900460ff161515151581526020016002820160019054906101000a900460ff161515151581525050815260200190600101906114aa565b5050505090505b919050565b60015481565b600760205281600052604060002081815481106115dc57600080fd5b9060005260206000209060050201600091509150508060000180546116009061382a565b80601f016020809104026020016040519081016040528092919081815260200182805461162c9061382a565b80156116795780601f1061164e57610100808354040283529160200191611679565b820191906000526020600020905b81548152906001019060200180831161165c57829003601f168201915b5050505050908060010154908060020180546116949061382a565b80601f01602080910402602001604051908101604052809291908181526020018280546116c09061382a565b801561170d5780601f106116e25761010080835404028352916020019161170d565b820191906000526020600020905b8154815290600101906020018083116116f057829003601f168201915b5050505050908060030180546117229061382a565b80601f016020809104026020016040519081016040528092919081815260200182805461174e9061382a565b801561179b5780601f106117705761010080835404028352916020019161179b565b820191906000526020600020905b81548152906001019060200180831161177e57829003601f168201915b5050505050908060040160009054906101000a900460ff16905085565b6003818051602081018201805184825260208301602085012081835280955050505050506000915090505481565b60008054906101000a900473ffffffffffffffffffffffffffffffffffffffff1673ffffffffffffffffffffffffffffffffffffffff163373ffffffffffffffffffffffffffffffffffffffff1614611874576040517f08c379a000000000000000000000000000000000000000000000000000000000815260040161186b90613c18565b60405180910390fd5b600260008273ffffffffffffffffffffffffffffffffffffffff1673ffffffffffffffffffffffffffffffffffffffff16815260200190815260200160002060006101000a81549060ff021916905550565b600080600090505b600480549050811015611964578273ffffffffffffffffffffffffffffffffffffffff166004828154811061190657611905613ad9565b5b9060005260206000200160009054906101000a900473ffffffffffffffffffffffffffffffffffffffff1673ffffffffffffffffffffffffffffffffffffffff160361195157600191505b808061195c90613b5e565b9150506118ce565b50919050565b6000600560003373ffffffffffffffffffffffffffffffffffffffff1673ffffffffffffffffffffffffffffffffffffffff16815260200190815260200160002080549050116119b957600080fd5b600081116119c657600080fd5b60005b600560003373ffffffffffffffffffffffffffffffffffffffff1673ffffffffffffffffffffffffffffffffffffffff16815260200190815260200160002080549050811015611bb15782604051602001611a24919061375b565b60405160208183030381529060405280519060200120600560003373ffffffffffffffffffffffffffffffffffffffff1673ffffffffffffffffffffffffffffffffffffffff1681526020019081526020016000208281548110611a8b57611a8a613ad9565b5b9060005260206000209060030201600001604051602001611aac9190613cbb565b60405160208183030381529060405280519060200120148015611b31575081600560003373ffffffffffffffffffffffffffffffffffffffff1673ffffffffffffffffffffffffffffffffffffffff1681526020019081526020016000208281548110611b1c57611b1b613ad9565b5b90600052602060002090600302016001015414155b15611b9e5781600560003373ffffffffffffffffffffffffffffffffffffffff1673ffffffffffffffffffffffffffffffffffffffff1681526020019081526020016000208281548110611b8857611b87613ad9565b5b9060005260206000209060030201600101819055505b8080611ba990613b5e565b9150506119c9565b505050565b600260003373ffffffffffffffffffffffffffffffffffffffff1673ffffffffffffffffffffffffffffffffffffffff16815260200190815260200160002060009054906101000a900460ff16611c42576040517f08c379a0000000000000000000000000000000000000000000000000000000008152600401611c3990613d44565b60405180910390fd5b60005b8251811015611cb857818181518110611c6157611c60613ad9565b5b60200260200101516003848381518110611c7e57611c7d613ad9565b5b6020026020010151604051611c93919061375b565b9081526020016040518091039020819055508080611cb090613b5e565b915050611c45565b505050565b600080600090505b600680549050811015611d5b578273ffffffffffffffffffffffffffffffffffffffff1660068281548110611cfd57611cfc613ad9565b5b9060005260206000200160009054906101000a900473ffffffffffffffffffffffffffffffffffffffff1673ffffffffffffffffffffffffffffffffffffffff1603611d4857600191505b8080611d5390613b5e565b915050611cc5565b50919050565b600260003373ffffffffffffffffffffffffffffffffffffffff1673ffffffffffffffffffffffffffffffffffffffff16815260200190815260200160002060009054906101000a900460ff16611ded576040517f08c379a0000000000000000000000000000000000000000000000000000000008152600401611de490613d44565b60405180910390fd5b60005b600760008473ffffffffffffffffffffffffffffffffffffffff1673ffffffffffffffffffffffffffffffffffffffff16815260200190815260200160002080549050811015611fb95781604051602001611e4b919061375b565b60405160208183030381529060405280519060200120600760008573ffffffffffffffffffffffffffffffffffffffff1673ffffffffffffffffffffffffffffffffffffffff1681526020019081526020016000208281548110611eb257611eb1613ad9565b5b9060005260206000209060050201600001604051602001611ed39190613cbb565b6040516020818303038152906040528051906020012003611fa657600760008473ffffffffffffffffffffffffffffffffffffffff1673ffffffffffffffffffffffffffffffffffffffff1681526020019081526020016000208181548110611f3f57611f3e613ad9565b5b906000526020600020906005020160008082016000611f5e9190612803565b6001820160009055600282016000611f769190612803565b600382016000611f869190612803565b6004820160006101000a81549060ff02191690555050611fa58361247d565b5b8080611fb190613b5e565b915050611df0565b505050565b6060611fc982611cbd565b1561224157600760008373ffffffffffffffffffffffffffffffffffffffff1673ffffffffffffffffffffffffffffffffffffffff168152602001908152602001600020805480602002602001604051908101604052809291908181526020016000905b8282101561223a57838290600052602060002090600502016040518060a00160405290816000820180546120609061382a565b80601f016020809104026020016040519081016040528092919081815260200182805461208c9061382a565b80156120d95780601f106120ae576101008083540402835291602001916120d9565b820191906000526020600020905b8154815290600101906020018083116120bc57829003601f168201915b50505050508152602001600182015481526020016002820180546120fc9061382a565b80601f01602080910402602001604051908101604052809291908181526020018280546121289061382a565b80156121755780601f1061214a57610100808354040283529160200191612175565b820191906000526020600020905b81548152906001019060200180831161215857829003601f168201915b5050505050815260200160038201805461218e9061382a565b80601f01602080910402602001604051908101604052809291908181526020018280546121ba9061382a565b80156122075780601f106121dc57610100808354040283529160200191612207565b820191906000526020600020905b8154815290600101906020018083116121ea57829003601f168201915b505050505081526020016004820160009054906101000a900460ff1615151515815250508152602001906001019061202d565b5050505090505b919050565b6000600560003373ffffffffffffffffffffffffffffffffffffffff1673ffffffffffffffffffffffffffffffffffffffff168152602001908152602001600020805490501161229557600080fd5b60005b600560003373ffffffffffffffffffffffffffffffffffffffff1673ffffffffffffffffffffffffffffffffffffffff1681526020019081526020016000208054905081101561245557816040516020016122f3919061375b565b60405160208183030381529060405280519060200120600560003373ffffffffffffffffffffffffffffffffffffffff1673ffffffffffffffffffffffffffffffffffffffff168152602001908152602001600020828154811061235a57612359613ad9565b5b906000526020600020906003020160000160405160200161237b9190613cbb565b604051602081830303815290604052805190602001200361244257600560003373ffffffffffffffffffffffffffffffffffffffff1673ffffffffffffffffffffffffffffffffffffffff16815260200190815260200160002081815481106123e7576123e6613ad9565b5b9060005260206000209060030201600080820160006124069190612803565b60018201600090556002820160006101000a81549060ff02191690556002820160016101000a81549060ff0219169055505061244133612640565b5b808061244d90613b5e565b915050612298565b5050565b60008054906101000a900473ffffffffffffffffffffffffffffffffffffffff1681565b600080600090505b600760008473ffffffffffffffffffffffffffffffffffffffff1673ffffffffffffffffffffffffffffffffffffffff1681526020019081526020016000208054905081101561255b576000600760008573ffffffffffffffffffffffffffffffffffffffff1673ffffffffffffffffffffffffffffffffffffffff168152602001908152602001600020828154811061252257612521613ad9565b5b9060005260206000209060050201600101541461254857818061254490613b5e565b9250505b808061255390613b5e565b915050612485565b506000810361263c5760005b60068054905081101561263a578273ffffffffffffffffffffffffffffffffffffffff166006828154811061259f5761259e613ad9565b5b9060005260206000200160009054906101000a900473ffffffffffffffffffffffffffffffffffffffff1673ffffffffffffffffffffffffffffffffffffffff160361262757600681815481106125f9576125f8613ad9565b5b9060005260206000200160006101000a81549073ffffffffffffffffffffffffffffffffffffffff02191690555b808061263290613b5e565b915050612567565b505b5050565b600080600090505b600560008473ffffffffffffffffffffffffffffffffffffffff1673ffffffffffffffffffffffffffffffffffffffff1681526020019081526020016000208054905081101561271e576000600560008573ffffffffffffffffffffffffffffffffffffffff1673ffffffffffffffffffffffffffffffffffffffff16815260200190815260200160002082815481106126e5576126e4613ad9565b5b9060005260206000209060030201600101541461270b57818061270790613b5e565b9250505b808061271690613b5e565b915050612648565b50600081036127ff5760005b6004805490508110156127fd578273ffffffffffffffffffffffffffffffffffffffff166004828154811061276257612761613ad9565b5b9060005260206000200160009054906101000a900473ffffffffffffffffffffffffffffffffffffffff1673ffffffffffffffffffffffffffffffffffffffff16036127ea57600481815481106127bc576127bb613ad9565b5b9060005260206000200160006101000a81549073ffffffffffffffffffffffffffffffffffffffff02191690555b80806127f590613b5e565b91505061272a565b505b5050565b50805461280f9061382a565b6000825580601f106128215750612840565b601f01602090049060005260206000209081019061283f9190612843565b5b50565b5b8082111561285c576000816000905550600101612844565b5090565b6000604051905090565b600080fd5b600080fd5b600080fd5b600080fd5b6000601f19601f8301169050919050565b7f4e487b7100000000000000000000000000000000000000000000000000000000600052604160045260246000fd5b6128c78261287e565b810181811067ffffffffffffffff821117156128e6576128e561288f565b5b80604052505050565b60006128f9612860565b905061290582826128be565b919050565b600067ffffffffffffffff8211156129255761292461288f565b5b61292e8261287e565b9050602081019050919050565b82818337600083830152505050565b600061295d6129588461290a565b6128ef565b90508281526020810184848401111561297957612978612879565b5b61298484828561293b565b509392505050565b600082601f8301126129a1576129a0612874565b5b81356129b184826020860161294a565b91505092915050565b6000819050919050565b6129cd816129ba565b81146129d857600080fd5b50565b6000813590506129ea816129c4565b92915050565b60008115159050919050565b612a05816129f0565b8114612a1057600080fd5b50565b600081359050612a22816129fc565b92915050565b600080600080600060a08688031215612a4457612a4361286a565b5b600086013567ffffffffffffffff811115612a6257612a6161286f565b5b612a6e8882890161298c565b955050602086013567ffffffffffffffff811115612a8f57612a8e61286f565b5b612a9b8882890161298c565b945050604086013567ffffffffffffffff811115612abc57612abb61286f565b5b612ac88882890161298c565b9350506060612ad9888289016129db565b9250506080612aea88828901612a13565b9150509295509295909350565b600067ffffffffffffffff821115612b1257612b1161288f565b5b602082029050602081019050919050565b600080fd5b6000612b3b612b3684612af7565b6128ef565b90508083825260208201905060208402830185811115612b5e57612b5d612b23565b5b835b81811015612ba557803567ffffffffffffffff811115612b8357612b82612874565b5b808601612b90898261298c565b85526020850194505050602081019050612b60565b5050509392505050565b600082601f830112612bc457612bc3612874565b5b8135612bd4848260208601612b28565b91505092915050565b600067ffffffffffffffff821115612bf857612bf761288f565b5b602082029050602081019050919050565b6000612c1c612c1784612bdd565b6128ef565b90508083825260208201905060208402830185811115612c3f57612c3e612b23565b5b835b81811015612c685780612c5488826129db565b845260208401935050602081019050612c41565b5050509392505050565b600082601f830112612c8757612c86612874565b5b8135612c97848260208601612c09565b91505092915050565b600067ffffffffffffffff821115612cbb57612cba61288f565b5b602082029050602081019050919050565b6000612cdf612cda84612ca0565b6128ef565b90508083825260208201905060208402830185811115612d0257612d01612b23565b5b835b81811015612d2b5780612d178882612a13565b845260208401935050602081019050612d04565b5050509392505050565b600082601f830112612d4a57612d49612874565b5b8135612d5a848260208601612ccc565b91505092915050565b600080600080600060a08688031215612d7f57612d7e61286a565b5b600086013567ffffffffffffffff811115612d9d57612d9c61286f565b5b612da988828901612baf565b955050602086013567ffffffffffffffff811115612dca57612dc961286f565b5b612dd688828901612baf565b945050604086013567ffffffffffffffff811115612df757612df661286f565b5b612e0388828901612baf565b935050606086013567ffffffffffffffff811115612e2457612e2361286f565b5b612e3088828901612c72565b925050608086013567ffffffffffffffff811115612e5157612e5061286f565b5b612e5d88828901612d35565b9150509295509295909350565b600080fd5b60008083601f840112612e8557612e84612874565b5b8235905067ffffffffffffffff811115612ea257612ea1612e6a565b5b602083019150836020820283011115612ebe57612ebd612b23565b5b9250929050565b60008060208385031215612edc57612edb61286a565b5b600083013567ffffffffffffffff811115612efa57612ef961286f565b5b612f0685828601612e6f565b92509250509250929050565b600073ffffffffffffffffffffffffffffffffffffffff82169050919050565b6000612f3d82612f12565b9050919050565b612f4d81612f32565b8114612f5857600080fd5b50565b600081359050612f6a81612f44565b92915050565b600060208284031215612f8657612f8561286a565b5b6000612f9484828501612f5b565b91505092915050565b612fa6816129f0565b82525050565b6000602082019050612fc16000830184612f9d565b92915050565b600060208284031215612fdd57612fdc61286a565b5b6000612feb848285016129db565b91505092915050565b612ffd81612f32565b82525050565b60006020820190506130186000830184612ff4565b92915050565b600080604083850312156130355761303461286a565b5b600061304385828601612f5b565b9250506020613054858286016129db565b9150509250929050565b600081519050919050565b600082825260208201905092915050565b60005b8381101561309857808201518184015260208101905061307d565b838111156130a7576000848401525b50505050565b60006130b88261305e565b6130c28185613069565b93506130d281856020860161307a565b6130db8161287e565b840191505092915050565b6130ef816129ba565b82525050565b6000608082019050818103600083015261310f81876130ad565b905061311e60208301866130e6565b61312b6040830185612f9d565b6131386060830184612f9d565b95945050505050565b60008060006060848603121561315a5761315961286a565b5b600084013567ffffffffffffffff8111156131785761317761286f565b5b6131848682870161298c565b9350506020613195868287016129db565b92505060406131a686828701612a13565b9150509250925092565b600080604083850312156131c7576131c661286a565b5b600083013567ffffffffffffffff8111156131e5576131e461286f565b5b6131f18582860161298c565b925050602061320285828601612a13565b9150509250929050565b6000602082840312156132225761322161286a565b5b600082013567ffffffffffffffff8111156132405761323f61286f565b5b61324c8482850161298c565b91505092915050565b600081519050919050565b600082825260208201905092915050565b6000819050602082019050919050565b600082825260208201905092915050565b600061329d8261305e565b6132a78185613281565b93506132b781856020860161307a565b6132c08161287e565b840191505092915050565b6132d4816129ba565b82525050565b6132e3816129f0565b82525050565b600060808301600083015184820360008601526133068282613292565b915050602083015161331b60208601826132cb565b50604083015161332e60408601826132da565b50606083015161334160608601826132da565b508091505092915050565b600061335883836132e9565b905092915050565b6000602082019050919050565b600061337882613255565b6133828185613260565b93508360208202850161339485613271565b8060005b858110156133d057848403895281516133b1858261334c565b94506133bc83613360565b925060208a01995050600181019050613398565b50829750879550505050505092915050565b600060208201905081810360008301526133fc818461336d565b905092915050565b600060208201905061341960008301846130e6565b92915050565b600060a082019050818103600083015261343981886130ad565b905061344860208301876130e6565b818103604083015261345a81866130ad565b9050818103606083015261346e81856130ad565b905061347d6080830184612f9d565b9695505050505050565b6000806040838503121561349e5761349d61286a565b5b600083013567ffffffffffffffff8111156134bc576134bb61286f565b5b6134c88582860161298c565b92505060206134d9858286016129db565b9150509250929050565b600080604083850312156134fa576134f961286a565b5b600083013567ffffffffffffffff8111156135185761351761286f565b5b61352485828601612baf565b925050602083013567ffffffffffffffff8111156135455761354461286f565b5b61355185828601612c72565b9150509250929050565b600080604083850312156135725761357161286a565b5b600061358085828601612f5b565b925050602083013567ffffffffffffffff8111156135a1576135a061286f565b5b6135ad8582860161298c565b9150509250929050565b600081519050919050565b600082825260208201905092915050565b6000819050602082019050919050565b600060a08301600083015184820360008601526136008282613292565b915050602083015161361560208601826132cb565b506040830151848203604086015261362d8282613292565b915050606083015184820360608601526136478282613292565b915050608083015161365c60808601826132da565b508091505092915050565b600061367383836135e3565b905092915050565b6000602082019050919050565b6000613693826135b7565b61369d81856135c2565b9350836020820285016136af856135d3565b8060005b858110156136eb57848403895281516136cc8582613667565b94506136d78361367b565b925060208a019950506001810190506136b3565b50829750879550505050505092915050565b600060208201905081810360008301526137178184613688565b905092915050565b600081905092915050565b60006137358261305e565b61373f818561371f565b935061374f81856020860161307a565b80840191505092915050565b6000613767828461372a565b915081905092915050565b7f4e487b7100000000000000000000000000000000000000000000000000000000600052601160045260246000fd5b60006137ac826129ba565b91506137b7836129ba565b9250817fffffffffffffffffffffffffffffffffffffffffffffffffffffffffffffffff04831182151516156137f0576137ef613772565b5b828202905092915050565b7f4e487b7100000000000000000000000000000000000000000000000000000000600052602260045260246000fd5b6000600282049050600182168061384257607f821691505b602082108103613855576138546137fb565b5b50919050565b60008190508160005260206000209050919050565b60006020601f8301049050919050565b600082821b905092915050565b6000600883026138bd7fffffffffffffffffffffffffffffffffffffffffffffffffffffffffffffffff82613880565b6138c78683613880565b95508019841693508086168417925050509392505050565b6000819050919050565b60006139046138ff6138fa846129ba565b6138df565b6129ba565b9050919050565b6000819050919050565b61391e836138e9565b61393261392a8261390b565b84845461388d565b825550505050565b600090565b61394761393a565b613952818484613915565b505050565b5b818110156139765761396b60008261393f565b600181019050613958565b5050565b601f8211156139bb5761398c8161385b565b61399584613870565b810160208510156139a4578190505b6139b86139b085613870565b830182613957565b50505b505050565b600082821c905092915050565b60006139de600019846008026139c0565b1980831691505092915050565b60006139f783836139cd565b9150826002028217905092915050565b613a108261305e565b67ffffffffffffffff811115613a2957613a2861288f565b5b613a33825461382a565b613a3e82828561397a565b600060209050601f831160018114613a715760008415613a5f578287015190505b613a6985826139eb565b865550613ad1565b601f198416613a7f8661385b565b60005b82811015613aa757848901518255600182019150602085019450602081019050613a82565b86831015613ac45784890151613ac0601f8916826139cd565b8355505b6001600288020188555050505b505050505050565b7f4e487b7100000000000000000000000000000000000000000000000000000000600052603260045260246000fd5b6000613b13826129ba565b9150613b1e836129ba565b9250827fffffffffffffffffffffffffffffffffffffffffffffffffffffffffffffffff03821115613b5357613b52613772565b5b828201905092915050565b6000613b69826129ba565b91507fffffffffffffffffffffffffffffffffffffffffffffffffffffffffffffffff8203613b9b57613b9a613772565b5b600182019050919050565b7f546869732066756e6374696f6e206973207265737472696374656420746f207460008201527f686520636f6e747261637427732061646d696e00000000000000000000000000602082015250565b6000613c02603383613069565b9150613c0d82613ba6565b604082019050919050565b60006020820190508181036000830152613c3181613bf5565b9050919050565b60008154613c458161382a565b613c4f818661371f565b94506001821660008114613c6a5760018114613c7f57613cb2565b60ff1983168652811515820286019350613cb2565b613c888561385b565b60005b83811015613caa57815481890152600182019150602081019050613c8b565b838801955050505b50505092915050565b6000613cc78284613c38565b915081905092915050565b7f546869732066756e6374696f6e206973207265737472696374656420746f207460008201527f686520636f6e7472616374277320537461666600000000000000000000000000602082015250565b6000613d2e603383613069565b9150613d3982613cd2565b604082019050919050565b60006020820190508181036000830152613d5d81613d21565b905091905056fea2646970667358221220d6a97e97638780f4e00920cb4322296a2951c487372b94a80839cb4164e6e01e64736f6c634300080f0033",
  "immutableReferences": {},
  "source": "// SPDX-License-Identifier: MIT\npragma solidity >=0.4.22 <0.9.0;\n\nimport \"./Authorized.sol\";\n\ncontract Amazon is Authorized {\n    mapping(string => uint256) public itemsInStoke;\n\n    struct CartItem {\n        string itemName;\n        uint256 Quantity;\n        bool inStoke;\n        bool isGeft;\n    }\n    address[] public UsersWhoPushItemsToCart;\n\n    mapping(address => CartItem[]) public CartItemsOfOwner;\n\n    struct order {\n        string itemName;\n        uint256 Quantity;\n        string addressTo;\n        string message;\n        bool isGeft;\n    }\n    address[] public UsersWhoRequested;\n\n    mapping(address => order[]) public UsersOrders;\n\n    function addItemsToStoke(\n        string[] memory _itemsName,\n        uint256[] memory _ItemsPrice\n    ) public onlyStaff {\n        for (uint256 i = 0; i < _itemsName.length; i++) {\n            itemsInStoke[_itemsName[i]] = _ItemsPrice[i];\n        }\n    }\n\n    function removeItemFromStoke(string memory _itemName) public onlyStaff {\n        delete itemsInStoke[_itemName];\n    }\n\n    function addItemsToCart(\n        string memory _itemName,\n        uint256 _Quantity,\n        bool _isGeft\n    ) public {\n        bool _inStoke;\n        if (itemsInStoke[_itemName] > 0) {\n            _inStoke = true;\n        }\n\n        CartItemsOfOwner[msg.sender].push(\n            CartItem(_itemName, _Quantity, _inStoke, _isGeft)\n        );\n        UsersWhoPushItemsToCart.push(msg.sender);\n    }\n\n    // check Cart Items of adderss is it empty\n    function checkCartItems(address _user) private {\n        uint256 itemsLength;\n        for (uint256 i = 0; i < CartItemsOfOwner[_user].length; i++) {\n            if (CartItemsOfOwner[_user][i].Quantity != 0) {\n                itemsLength++;\n            }\n        }\n        if (itemsLength == 0) {\n            for (uint256 i = 0; i < UsersWhoPushItemsToCart.length; i++) {\n                if (UsersWhoPushItemsToCart[i] == _user) {\n                    delete UsersWhoPushItemsToCart[i];\n                }\n            }\n        }\n    }\n\n    function removetemsFromCart(string memory _itemName) public {\n        require(CartItemsOfOwner[msg.sender].length > 0);\n        for (uint256 i = 0; i < CartItemsOfOwner[msg.sender].length; i++) {\n            if (\n                keccak256(\n                    abi.encodePacked(CartItemsOfOwner[msg.sender][i].itemName)\n                ) == keccak256(abi.encodePacked(_itemName))\n            ) {\n                delete CartItemsOfOwner[msg.sender][i];\n                checkCartItems(msg.sender);\n            }\n        }\n    }\n\n    function changeQuantity(string memory _itemName, uint256 _Quantity) public {\n        require(CartItemsOfOwner[msg.sender].length > 0);\n        require(_Quantity > 0);\n\n        for (uint256 i = 0; i < CartItemsOfOwner[msg.sender].length; i++) {\n            if (\n                keccak256(\n                    abi.encodePacked(CartItemsOfOwner[msg.sender][i].itemName)\n                ) ==\n                keccak256(abi.encodePacked(_itemName)) &&\n                CartItemsOfOwner[msg.sender][i].Quantity != _Quantity\n            ) {\n                CartItemsOfOwner[msg.sender][i].Quantity = _Quantity;\n            }\n        }\n    }\n\n    function setGift(string memory _itemName, bool _isGeft) public {\n        require(CartItemsOfOwner[msg.sender].length > 0);\n\n        for (uint256 i = 0; i < CartItemsOfOwner[msg.sender].length; i++) {\n            if (\n                keccak256(\n                    abi.encodePacked(CartItemsOfOwner[msg.sender][i].itemName)\n                ) ==\n                keccak256(abi.encodePacked(_itemName)) &&\n                CartItemsOfOwner[msg.sender][i].isGeft != _isGeft\n            ) {\n                CartItemsOfOwner[msg.sender][i].isGeft = _isGeft;\n            }\n        }\n    }\n\n    function isUsersHasItemsInCart(address _user)\n        public\n        view\n        returns (bool _hasItemsInCart)\n    {\n        for (uint256 i = 0; i < UsersWhoPushItemsToCart.length; i++) {\n            if (UsersWhoPushItemsToCart[i] == _user) {\n                _hasItemsInCart = true;\n            }\n        }\n        return _hasItemsInCart;\n    }\n\n    function getCartItemsOfOwner(address _userAddress)\n        public\n        view\n        returns (CartItem[] memory _CartItemsOfOwner)\n    {\n        if (isUsersHasItemsInCart(_userAddress)) {\n            _CartItemsOfOwner = CartItemsOfOwner[_userAddress];\n        }\n        return _CartItemsOfOwner;\n    }\n\n    function isUsersHasOrders(address _user)\n        public\n        view\n        returns (bool _UsersHasOrders)\n    {\n        for (uint256 i = 0; i < UsersWhoRequested.length; i++) {\n            if (UsersWhoRequested[i] == _user) {\n                _UsersHasOrders = true;\n            }\n        }\n        return _UsersHasOrders;\n    }\n\n    function getUsersOrders(address _userAddress)\n        public\n        view\n        returns (order[] memory _orders)\n    {\n        if (isUsersHasOrders(_userAddress)) {\n            _orders = UsersOrders[_userAddress];\n        }\n        return _orders;\n    }\n\n    function buyItem(\n        string memory _itemName,\n        string memory _DeliveryAddress,\n        string memory _message,\n        uint256 _Quantity,\n        bool isGeft\n    ) public payable {\n        require(itemsInStoke[_itemName] > 0);\n        require(msg.value >= (itemsInStoke[_itemName] * _Quantity));\n\n        UsersOrders[msg.sender].push(\n            order(_itemName, _Quantity, _DeliveryAddress, _message, isGeft)\n        );\n        UsersWhoRequested.push(msg.sender);\n    }\n\n    function buyItems(\n        string[] memory _itemsName,\n        string[] memory _DeliveryAddress,\n        string[] memory _messages,\n        uint256[] memory _Quantitys,\n        bool[] memory _isGeft\n    ) public payable {\n        uint256 _itemsInStoke;\n        uint256 _totalAmounts;\n        for (uint256 i = 0; i < _itemsName.length; i++) {\n            _totalAmounts =\n                _totalAmounts +\n                itemsInStoke[_itemsName[i]] *\n                _Quantitys[i];\n\n            if (itemsInStoke[_itemsName[i]] > 0) {\n                _itemsInStoke++;\n            }\n        }\n\n        require(_itemsInStoke == _itemsName.length);\n        require(msg.value >= _totalAmounts);\n\n        for (uint256 j = 0; j < _itemsName.length; j++) {\n            UsersOrders[msg.sender].push(\n                order(\n                    _itemsName[j],\n                    _Quantitys[j],\n                    _DeliveryAddress[j],\n                    _messages[j],\n                    _isGeft[j]\n                )\n            );\n        }\n        UsersWhoRequested.push(msg.sender);\n    }\n\n    // check Users Orders of adderss is it empty\n    function checkUsersOrders(address _user) private {\n        uint256 _UsersOrders;\n        for (uint256 i = 0; i < UsersOrders[_user].length; i++) {\n            if (UsersOrders[_user][i].Quantity != 0) {\n                _UsersOrders++;\n            }\n        }\n        if (_UsersOrders == 0) {\n            for (uint256 i = 0; i < UsersWhoRequested.length; i++) {\n                if (UsersWhoRequested[i] == _user) {\n                    delete UsersWhoRequested[i];\n                }\n            }\n        }\n    }\n\n    // The request has been sent successfully\n\n    function requestSent(address _address, string memory _itemName)\n        public\n        onlyStaff\n    {\n        for (uint256 i = 0; i < UsersOrders[_address].length; i++) {\n            if (\n                keccak256(\n                    abi.encodePacked(UsersOrders[_address][i].itemName)\n                ) == keccak256(abi.encodePacked(_itemName))\n            ) {\n                delete UsersOrders[_address][i];\n                checkUsersOrders(_address);\n            }\n        }\n    }\n\n    function getProfits() public onlyAdmin {\n        payable(msg.sender).transfer(address(this).balance);\n    }\n}\n",
  "sourcePath": "C:\\Users\\hamza\\Desktop\\web3-tasks\\9_amazon_web3\\contracts\\Amazon.sol",
  "compiler": {
    "name": "solc",
    "version": "0.8.15+commit.e14f2714.Emscripten.clang"
  },
  "schemaVersion": "3.4.8",
  "updatedAt": "2022-07-27T02:44:52.079Z",
  "networkType": "ethereum",
  "devdoc": {
    "kind": "dev",
    "methods": {},
    "version": 1
  },
  "userdoc": {
    "kind": "user",
    "methods": {},
    "version": 1
  }
}