{
  "contractName": "Amazon",
  "abi": [
    {
      "inputs": [
        {
          "internalType": "address",
          "name": "",
          "type": "address"
        },
        {
          "internalType": "uint256",
          "name": "",
          "type": "uint256"
        }
      ],
      "name": "CartItemsOfOwner",
      "outputs": [
        {
          "internalType": "string",
          "name": "itemName",
          "type": "string"
        },
        {
          "internalType": "uint256",
          "name": "Quantity",
          "type": "uint256"
        },
        {
          "internalType": "bool",
          "name": "inStoke",
          "type": "bool"
        },
        {
          "internalType": "bool",
          "name": "isGeft",
          "type": "bool"
        }
      ],
      "stateMutability": "view",
      "type": "function",
      "constant": true
    },
    {
      "inputs": [
        {
          "internalType": "address",
          "name": "",
          "type": "address"
        },
        {
          "internalType": "uint256",
          "name": "",
          "type": "uint256"
        }
      ],
      "name": "UsersOrders",
      "outputs": [
        {
          "internalType": "string",
          "name": "itemName",
          "type": "string"
        },
        {
          "internalType": "uint256",
          "name": "Quantity",
          "type": "uint256"
        },
        {
          "internalType": "string",
          "name": "addressTo",
          "type": "string"
        },
        {
          "internalType": "string",
          "name": "message",
          "type": "string"
        },
        {
          "internalType": "bool",
          "name": "isGeft",
          "type": "bool"
        }
      ],
      "stateMutability": "view",
      "type": "function",
      "constant": true
    },
    {
      "inputs": [
        {
          "internalType": "uint256",
          "name": "",
          "type": "uint256"
        }
      ],
      "name": "UsersWhoPushItemsToCart",
      "outputs": [
        {
          "internalType": "address",
          "name": "",
          "type": "address"
        }
      ],
      "stateMutability": "view",
      "type": "function",
      "constant": true
    },
    {
      "inputs": [
        {
          "internalType": "uint256",
          "name": "",
          "type": "uint256"
        }
      ],
      "name": "UsersWhoRequested",
      "outputs": [
        {
          "internalType": "address",
          "name": "",
          "type": "address"
        }
      ],
      "stateMutability": "view",
      "type": "function",
      "constant": true
    },
    {
      "inputs": [
        {
          "internalType": "address[]",
          "name": "_newStaff",
          "type": "address[]"
        }
      ],
      "name": "addStaff",
      "outputs": [],
      "stateMutability": "nonpayable",
      "type": "function"
    },
    {
      "inputs": [],
      "name": "admin",
      "outputs": [
        {
          "internalType": "address",
          "name": "",
          "type": "address"
        }
      ],
      "stateMutability": "view",
      "type": "function",
      "constant": true
    },
    {
      "inputs": [
        {
          "internalType": "address",
          "name": "_newAdmin",
          "type": "address"
        }
      ],
      "name": "changeAdmin",
      "outputs": [],
      "stateMutability": "nonpayable",
      "type": "function"
    },
    {
      "inputs": [
        {
          "internalType": "string",
          "name": "",
          "type": "string"
        }
      ],
      "name": "itemsInStoke",
      "outputs": [
        {
          "internalType": "uint256",
          "name": "",
          "type": "uint256"
        }
      ],
      "stateMutability": "view",
      "type": "function",
      "constant": true
    },
    {
      "inputs": [],
      "name": "price",
      "outputs": [
        {
          "internalType": "uint256",
          "name": "",
          "type": "uint256"
        }
      ],
      "stateMutability": "view",
      "type": "function",
      "constant": true
    },
    {
      "inputs": [
        {
          "internalType": "address",
          "name": "_Staff",
          "type": "address"
        }
      ],
      "name": "removeStaff",
      "outputs": [],
      "stateMutability": "nonpayable",
      "type": "function"
    },
    {
      "inputs": [
        {
          "internalType": "address",
          "name": "",
          "type": "address"
        }
      ],
      "name": "staff",
      "outputs": [
        {
          "internalType": "bool",
          "name": "",
          "type": "bool"
        }
      ],
      "stateMutability": "view",
      "type": "function",
      "constant": true
    },
    {
      "inputs": [
        {
          "internalType": "string[]",
          "name": "_itemsName",
          "type": "string[]"
        },
        {
          "internalType": "uint256[]",
          "name": "_ItemsPrice",
          "type": "uint256[]"
        }
      ],
      "name": "addItemsToStoke",
      "outputs": [],
      "stateMutability": "nonpayable",
      "type": "function"
    },
    {
      "inputs": [
        {
          "internalType": "string",
          "name": "_itemName",
          "type": "string"
        }
      ],
      "name": "removeItemFromStoke",
      "outputs": [],
      "stateMutability": "nonpayable",
      "type": "function"
    },
    {
      "inputs": [
        {
          "internalType": "string",
          "name": "_itemName",
          "type": "string"
        },
        {
          "internalType": "uint256",
          "name": "_Quantity",
          "type": "uint256"
        },
        {
          "internalType": "bool",
          "name": "_isGeft",
          "type": "bool"
        }
      ],
      "name": "addItemsToCart",
      "outputs": [],
      "stateMutability": "nonpayable",
      "type": "function"
    },
    {
      "inputs": [
        {
          "internalType": "string",
          "name": "_itemName",
          "type": "string"
        }
      ],
      "name": "removetemsFromCart",
      "outputs": [],
      "stateMutability": "nonpayable",
      "type": "function"
    },
    {
      "inputs": [
        {
          "internalType": "string",
          "name": "_itemName",
          "type": "string"
        },
        {
          "internalType": "uint256",
          "name": "_Quantity",
          "type": "uint256"
        }
      ],
      "name": "changeQuantity",
      "outputs": [],
      "stateMutability": "nonpayable",
      "type": "function"
    },
    {
      "inputs": [
        {
          "internalType": "string",
          "name": "_itemName",
          "type": "string"
        },
        {
          "internalType": "bool",
          "name": "_isGeft",
          "type": "bool"
        }
      ],
      "name": "setGift",
      "outputs": [],
      "stateMutability": "nonpayable",
      "type": "function"
    },
    {
      "inputs": [
        {
          "internalType": "address",
          "name": "_user",
          "type": "address"
        }
      ],
      "name": "isUsersHasItemsInCart",
      "outputs": [
        {
          "internalType": "bool",
          "name": "_hasItemsInCart",
          "type": "bool"
        }
      ],
      "stateMutability": "view",
      "type": "function",
      "constant": true
    },
    {
      "inputs": [
        {
          "internalType": "address",
          "name": "_userAddress",
          "type": "address"
        }
      ],
      "name": "getCartItemsOfOwner",
      "outputs": [
        {
          "components": [
            {
              "internalType": "string",
              "name": "itemName",
              "type": "string"
            },
            {
              "internalType": "uint256",
              "name": "Quantity",
              "type": "uint256"
            },
            {
              "internalType": "bool",
              "name": "inStoke",
              "type": "bool"
            },
            {
              "internalType": "bool",
              "name": "isGeft",
              "type": "bool"
            }
          ],
          "internalType": "struct Amazon.CartItem[]",
          "name": "_CartItemsOfOwner",
          "type": "tuple[]"
        }
      ],
      "stateMutability": "view",
      "type": "function",
      "constant": true
    },
    {
      "inputs": [
        {
          "internalType": "address",
          "name": "_user",
          "type": "address"
        }
      ],
      "name": "isUsersHasOrders",
      "outputs": [
        {
          "internalType": "bool",
          "name": "_UsersHasOrders",
          "type": "bool"
        }
      ],
      "stateMutability": "view",
      "type": "function",
      "constant": true
    },
    {
      "inputs": [
        {
          "internalType": "address",
          "name": "_userAddress",
          "type": "address"
        }
      ],
      "name": "getUsersOrders",
      "outputs": [
        {
          "components": [
            {
              "internalType": "string",
              "name": "itemName",
              "type": "string"
            },
            {
              "internalType": "uint256",
              "name": "Quantity",
              "type": "uint256"
            },
            {
              "internalType": "string",
              "name": "addressTo",
              "type": "string"
            },
            {
              "internalType": "string",
              "name": "message",
              "type": "string"
            },
            {
              "internalType": "bool",
              "name": "isGeft",
              "type": "bool"
            }
          ],
          "internalType": "struct Amazon.order[]",
          "name": "_orders",
          "type": "tuple[]"
        }
      ],
      "stateMutability": "view",
      "type": "function",
      "constant": true
    },
    {
      "inputs": [
        {
          "internalType": "string",
          "name": "_itemName",
          "type": "string"
        },
        {
          "internalType": "string",
          "name": "_DeliveryAddress",
          "type": "string"
        },
        {
          "internalType": "string",
          "name": "_message",
          "type": "string"
        },
        {
          "internalType": "uint256",
          "name": "_Quantity",
          "type": "uint256"
        },
        {
          "internalType": "bool",
          "name": "isGeft",
          "type": "bool"
        }
      ],
      "name": "buyItem",
      "outputs": [],
      "stateMutability": "payable",
      "type": "function",
      "payable": true
    },
    {
      "inputs": [
        {
          "internalType": "address",
          "name": "_address",
          "type": "address"
        },
        {
          "internalType": "string",
          "name": "_itemName",
          "type": "string"
        }
      ],
      "name": "requestSent",
      "outputs": [],
      "stateMutability": "nonpayable",
      "type": "function"
    },
    {
      "inputs": [],
      "name": "getProfits",
      "outputs": [],
      "stateMutability": "nonpayable",
      "type": "function"
    }
  ],
  "bytecode": "0x608060405234801561001057600080fd5b50336000806101000a81548173ffffffffffffffffffffffffffffffffffffffff021916908373ffffffffffffffffffffffffffffffffffffffff1602179055506001600260003373ffffffffffffffffffffffffffffffffffffffff1673ffffffffffffffffffffffffffffffffffffffff16815260200190815260200160002060006101000a81548160ff021916908315150217905550652d79883d200060018190555061383c806100c56000396000f3fe60806040526004361061014b5760003560e01c8063a035b1fe116100b6578063de360ce81161006f578063de360ce8146104bc578063e5cd163e146104e5578063e83e383e14610522578063ec7acf571461054b578063edcce12214610588578063f851a440146105b15761014b565b8063a035b1fe14610384578063b13833a5146103af578063b93fcb1c146103f0578063c4522c921461042d578063ca3af7ac14610456578063cb67e426146104935761014b565b80636ddf3086116101085780636ddf3086146102665780636facbfde146102a357806370ecbcbe146102cc5780638c8ee7fa146102f55780638f2839701461031e57806393ed823e146103475761014b565b8063228a3da9146101505780633ad152581461016c5780633e3c6093146101835780634f83158a146101ac57806369f729d1146101e95780636a47fa7714610226575b600080fd5b61016a600480360381019061016591906126ea565b6105dc565b005b34801561017857600080fd5b506101816107a6565b005b34801561018f57600080fd5b506101aa60048036038101906101a59190612819565b61087d565b005b3480156101b857600080fd5b506101d360048036038101906101ce91906128c4565b6109b0565b6040516101e09190612900565b60405180910390f35b3480156101f557600080fd5b50610210600480360381019061020b919061291b565b6109d0565b60405161021d9190612957565b60405180910390f35b34801561023257600080fd5b5061024d60048036038101906102489190612972565b610a0f565b60405161025d9493929190612a49565b60405180910390f35b34801561027257600080fd5b5061028d6004803603810190610288919061291b565b610afe565b60405161029a9190612957565b60405180910390f35b3480156102af57600080fd5b506102ca60048036038101906102c59190612a95565b610b3d565b005b3480156102d857600080fd5b506102f360048036038101906102ee9190612b04565b610cc2565b005b34801561030157600080fd5b5061031c60048036038101906103179190612b60565b610f24565b005b34801561032a57600080fd5b50610345600480360381019061034091906128c4565b610fd5565b005b34801561035357600080fd5b5061036e600480360381019061036991906128c4565b6110fe565b60405161037b9190612d36565b60405180910390f35b34801561039057600080fd5b5061039961127d565b6040516103a69190612d58565b60405180910390f35b3480156103bb57600080fd5b506103d660048036038101906103d19190612972565b611283565b6040516103e7959493929190612d73565b60405180910390f35b3480156103fc57600080fd5b5061041760048036038101906104129190612b60565b61147b565b6040516104249190612d58565b60405180910390f35b34801561043957600080fd5b50610454600480360381019061044f91906128c4565b6114a9565b005b34801561046257600080fd5b5061047d600480360381019061047891906128c4565b611589565b60405161048a9190612900565b60405180910390f35b34801561049f57600080fd5b506104ba60048036038101906104b59190612ddb565b61162d565b005b3480156104c857600080fd5b506104e360048036038101906104de9190612fdb565b611878565b005b3480156104f157600080fd5b5061050c600480360381019061050791906128c4565b61197f565b6040516105199190612900565b60405180910390f35b34801561052e57600080fd5b5061054960048036038101906105449190613053565b611a23565b005b34801561055757600080fd5b50610572600480360381019061056d91906128c4565b611c80565b60405161057f91906131f5565b60405180910390f35b34801561059457600080fd5b506105af60048036038101906105aa9190612b60565b611f08565b005b3480156105bd57600080fd5b506105c661211b565b6040516105d39190612957565b60405180910390f35b60006003866040516105ee9190613253565b9081526020016040518091039020541161060757600080fd5b816003866040516106189190613253565b9081526020016040518091039020546106319190613299565b34101561063d57600080fd5b600760003373ffffffffffffffffffffffffffffffffffffffff1673ffffffffffffffffffffffffffffffffffffffff1681526020019081526020016000206040518060a00160405280878152602001848152602001868152602001858152602001831515815250908060018154018082558091505060019003906000526020600020906005020160009091909190915060008201518160000190816106e391906134ff565b5060208201518160010155604082015181600201908161070391906134ff565b50606082015181600301908161071991906134ff565b5060808201518160040160006101000a81548160ff02191690831515021790555050506006339080600181540180825580915050600190039060005260206000200160009091909190916101000a81548173ffffffffffffffffffffffffffffffffffffffff021916908373ffffffffffffffffffffffffffffffffffffffff1602179055505050505050565b60008054906101000a900473ffffffffffffffffffffffffffffffffffffffff1673ffffffffffffffffffffffffffffffffffffffff163373ffffffffffffffffffffffffffffffffffffffff1614610834576040517f08c379a000000000000000000000000000000000000000000000000000000000815260040161082b90613643565b60405180910390fd5b3373ffffffffffffffffffffffffffffffffffffffff166108fc479081150290604051600060405180830381858888f1935050505015801561087a573d6000803e3d6000fd5b50565b60008054906101000a900473ffffffffffffffffffffffffffffffffffffffff1673ffffffffffffffffffffffffffffffffffffffff163373ffffffffffffffffffffffffffffffffffffffff161461090b576040517f08c379a000000000000000000000000000000000000000000000000000000000815260040161090290613643565b60405180910390fd5b60005b828290508110156109ab5760016002600085858581811061093257610931613663565b5b905060200201602081019061094791906128c4565b73ffffffffffffffffffffffffffffffffffffffff1673ffffffffffffffffffffffffffffffffffffffff16815260200190815260200160002060006101000a81548160ff02191690831515021790555080806109a390613692565b91505061090e565b505050565b60026020528060005260406000206000915054906101000a900460ff1681565b600481815481106109e057600080fd5b906000526020600020016000915054906101000a900473ffffffffffffffffffffffffffffffffffffffff1681565b60056020528160005260406000208181548110610a2b57600080fd5b906000526020600020906003020160009150915050806000018054610a4f90613322565b80601f0160208091040260200160405190810160405280929190818152602001828054610a7b90613322565b8015610ac85780601f10610a9d57610100808354040283529160200191610ac8565b820191906000526020600020905b815481529060010190602001808311610aab57829003601f168201915b5050505050908060010154908060020160009054906101000a900460ff16908060020160019054906101000a900460ff16905084565b60068181548110610b0e57600080fd5b906000526020600020016000915054906101000a900473ffffffffffffffffffffffffffffffffffffffff1681565b600080600385604051610b509190613253565b9081526020016040518091039020541115610b6a57600190505b600560003373ffffffffffffffffffffffffffffffffffffffff1673ffffffffffffffffffffffffffffffffffffffff1681526020019081526020016000206040518060800160405280868152602001858152602001831515815260200184151581525090806001815401808255809150506001900390600052602060002090600302016000909190919091506000820151816000019081610c0c91906134ff565b506020820151816001015560408201518160020160006101000a81548160ff02191690831515021790555060608201518160020160016101000a81548160ff02191690831515021790555050506004339080600181540180825580915050600190039060005260206000200160009091909190916101000a81548173ffffffffffffffffffffffffffffffffffffffff021916908373ffffffffffffffffffffffffffffffffffffffff16021790555050505050565b6000600560003373ffffffffffffffffffffffffffffffffffffffff1673ffffffffffffffffffffffffffffffffffffffff1681526020019081526020016000208054905011610d1157600080fd5b60005b600560003373ffffffffffffffffffffffffffffffffffffffff1673ffffffffffffffffffffffffffffffffffffffff16815260200190815260200160002080549050811015610f1f5782604051602001610d6f9190613253565b60405160208183030381529060405280519060200120600560003373ffffffffffffffffffffffffffffffffffffffff1673ffffffffffffffffffffffffffffffffffffffff1681526020019081526020016000208281548110610dd657610dd5613663565b5b9060005260206000209060030201600001604051602001610df7919061375d565b604051602081830303815290604052805190602001201480610e8c5750811515600560003373ffffffffffffffffffffffffffffffffffffffff1673ffffffffffffffffffffffffffffffffffffffff1681526020019081526020016000208281548110610e6857610e67613663565b5b906000526020600020906003020160020160019054906101000a900460ff16151514155b15610f0c5781600560003373ffffffffffffffffffffffffffffffffffffffff1673ffffffffffffffffffffffffffffffffffffffff1681526020019081526020016000208281548110610ee357610ee2613663565b5b906000526020600020906003020160020160016101000a81548160ff0219169083151502179055505b8080610f1790613692565b915050610d14565b505050565b600260003373ffffffffffffffffffffffffffffffffffffffff1673ffffffffffffffffffffffffffffffffffffffff16815260200190815260200160002060009054906101000a900460ff16610fb0576040517f08c379a0000000000000000000000000000000000000000000000000000000008152600401610fa7906137e6565b60405180910390fd5b600381604051610fc09190613253565b90815260200160405180910390206000905550565b60008054906101000a900473ffffffffffffffffffffffffffffffffffffffff1673ffffffffffffffffffffffffffffffffffffffff163373ffffffffffffffffffffffffffffffffffffffff1614611063576040517f08c379a000000000000000000000000000000000000000000000000000000000815260040161105a90613643565b60405180910390fd5b806000806101000a81548173ffffffffffffffffffffffffffffffffffffffff021916908373ffffffffffffffffffffffffffffffffffffffff1602179055506001600260008373ffffffffffffffffffffffffffffffffffffffff1673ffffffffffffffffffffffffffffffffffffffff16815260200190815260200160002060006101000a81548160ff02191690831515021790555050565b606061110982611589565b1561127857600560008373ffffffffffffffffffffffffffffffffffffffff1673ffffffffffffffffffffffffffffffffffffffff168152602001908152602001600020805480602002602001604051908101604052809291908181526020016000905b8282101561127157838290600052602060002090600302016040518060800160405290816000820180546111a090613322565b80601f01602080910402602001604051908101604052809291908181526020018280546111cc90613322565b80156112195780601f106111ee57610100808354040283529160200191611219565b820191906000526020600020905b8154815290600101906020018083116111fc57829003601f168201915b50505050508152602001600182015481526020016002820160009054906101000a900460ff161515151581526020016002820160019054906101000a900460ff1615151515815250508152602001906001019061116d565b5050505090505b919050565b60015481565b6007602052816000526040600020818154811061129f57600080fd5b9060005260206000209060050201600091509150508060000180546112c390613322565b80601f01602080910402602001604051908101604052809291908181526020018280546112ef90613322565b801561133c5780601f106113115761010080835404028352916020019161133c565b820191906000526020600020905b81548152906001019060200180831161131f57829003601f168201915b50505050509080600101549080600201805461135790613322565b80601f016020809104026020016040519081016040528092919081815260200182805461138390613322565b80156113d05780601f106113a5576101008083540402835291602001916113d0565b820191906000526020600020905b8154815290600101906020018083116113b357829003601f168201915b5050505050908060030180546113e590613322565b80601f016020809104026020016040519081016040528092919081815260200182805461141190613322565b801561145e5780601f106114335761010080835404028352916020019161145e565b820191906000526020600020905b81548152906001019060200180831161144157829003601f168201915b5050505050908060040160009054906101000a900460ff16905085565b6003818051602081018201805184825260208301602085012081835280955050505050506000915090505481565b60008054906101000a900473ffffffffffffffffffffffffffffffffffffffff1673ffffffffffffffffffffffffffffffffffffffff163373ffffffffffffffffffffffffffffffffffffffff1614611537576040517f08c379a000000000000000000000000000000000000000000000000000000000815260040161152e90613643565b60405180910390fd5b600260008273ffffffffffffffffffffffffffffffffffffffff1673ffffffffffffffffffffffffffffffffffffffff16815260200190815260200160002060006101000a81549060ff021916905550565b600080600090505b600480549050811015611627578273ffffffffffffffffffffffffffffffffffffffff16600482815481106115c9576115c8613663565b5b9060005260206000200160009054906101000a900473ffffffffffffffffffffffffffffffffffffffff1673ffffffffffffffffffffffffffffffffffffffff160361161457600191505b808061161f90613692565b915050611591565b50919050565b6000600560003373ffffffffffffffffffffffffffffffffffffffff1673ffffffffffffffffffffffffffffffffffffffff168152602001908152602001600020805490501161167c57600080fd5b6000811161168957600080fd5b60005b600560003373ffffffffffffffffffffffffffffffffffffffff1673ffffffffffffffffffffffffffffffffffffffff1681526020019081526020016000208054905081101561187357826040516020016116e79190613253565b60405160208183030381529060405280519060200120600560003373ffffffffffffffffffffffffffffffffffffffff1673ffffffffffffffffffffffffffffffffffffffff168152602001908152602001600020828154811061174e5761174d613663565b5b906000526020600020906003020160000160405160200161176f919061375d565b6040516020818303038152906040528051906020012014806117f3575081600560003373ffffffffffffffffffffffffffffffffffffffff1673ffffffffffffffffffffffffffffffffffffffff16815260200190815260200160002082815481106117de576117dd613663565b5b90600052602060002090600302016001015414155b156118605781600560003373ffffffffffffffffffffffffffffffffffffffff1673ffffffffffffffffffffffffffffffffffffffff168152602001908152602001600020828154811061184a57611849613663565b5b9060005260206000209060030201600101819055505b808061186b90613692565b91505061168c565b505050565b600260003373ffffffffffffffffffffffffffffffffffffffff1673ffffffffffffffffffffffffffffffffffffffff16815260200190815260200160002060009054906101000a900460ff16611904576040517f08c379a00000000000000000000000000000000000000000000000000000000081526004016118fb906137e6565b60405180910390fd5b60005b825181101561197a5781818151811061192357611922613663565b5b602002602001015160038483815181106119405761193f613663565b5b60200260200101516040516119559190613253565b908152602001604051809103902081905550808061197290613692565b915050611907565b505050565b600080600090505b600680549050811015611a1d578273ffffffffffffffffffffffffffffffffffffffff16600682815481106119bf576119be613663565b5b9060005260206000200160009054906101000a900473ffffffffffffffffffffffffffffffffffffffff1673ffffffffffffffffffffffffffffffffffffffff1603611a0a57600191505b8080611a1590613692565b915050611987565b50919050565b600260003373ffffffffffffffffffffffffffffffffffffffff1673ffffffffffffffffffffffffffffffffffffffff16815260200190815260200160002060009054906101000a900460ff16611aaf576040517f08c379a0000000000000000000000000000000000000000000000000000000008152600401611aa6906137e6565b60405180910390fd5b60005b600760008473ffffffffffffffffffffffffffffffffffffffff1673ffffffffffffffffffffffffffffffffffffffff16815260200190815260200160002080549050811015611c7b5781604051602001611b0d9190613253565b60405160208183030381529060405280519060200120600760008573ffffffffffffffffffffffffffffffffffffffff1673ffffffffffffffffffffffffffffffffffffffff1681526020019081526020016000208281548110611b7457611b73613663565b5b9060005260206000209060050201600001604051602001611b95919061375d565b6040516020818303038152906040528051906020012003611c6857600760008473ffffffffffffffffffffffffffffffffffffffff1673ffffffffffffffffffffffffffffffffffffffff1681526020019081526020016000208181548110611c0157611c00613663565b5b906000526020600020906005020160008082016000611c2091906124c5565b6001820160009055600282016000611c3891906124c5565b600382016000611c4891906124c5565b6004820160006101000a81549060ff02191690555050611c678361213f565b5b8080611c7390613692565b915050611ab2565b505050565b6060611c8b8261197f565b15611f0357600760008373ffffffffffffffffffffffffffffffffffffffff1673ffffffffffffffffffffffffffffffffffffffff168152602001908152602001600020805480602002602001604051908101604052809291908181526020016000905b82821015611efc57838290600052602060002090600502016040518060a0016040529081600082018054611d2290613322565b80601f0160208091040260200160405190810160405280929190818152602001828054611d4e90613322565b8015611d9b5780601f10611d7057610100808354040283529160200191611d9b565b820191906000526020600020905b815481529060010190602001808311611d7e57829003601f168201915b5050505050815260200160018201548152602001600282018054611dbe90613322565b80601f0160208091040260200160405190810160405280929190818152602001828054611dea90613322565b8015611e375780601f10611e0c57610100808354040283529160200191611e37565b820191906000526020600020905b815481529060010190602001808311611e1a57829003601f168201915b50505050508152602001600382018054611e5090613322565b80601f0160208091040260200160405190810160405280929190818152602001828054611e7c90613322565b8015611ec95780601f10611e9e57610100808354040283529160200191611ec9565b820191906000526020600020905b815481529060010190602001808311611eac57829003601f168201915b505050505081526020016004820160009054906101000a900460ff16151515158152505081526020019060010190611cef565b5050505090505b919050565b6000600560003373ffffffffffffffffffffffffffffffffffffffff1673ffffffffffffffffffffffffffffffffffffffff1681526020019081526020016000208054905011611f5757600080fd5b60005b600560003373ffffffffffffffffffffffffffffffffffffffff1673ffffffffffffffffffffffffffffffffffffffff168152602001908152602001600020805490508110156121175781604051602001611fb59190613253565b60405160208183030381529060405280519060200120600560003373ffffffffffffffffffffffffffffffffffffffff1673ffffffffffffffffffffffffffffffffffffffff168152602001908152602001600020828154811061201c5761201b613663565b5b906000526020600020906003020160000160405160200161203d919061375d565b604051602081830303815290604052805190602001200361210457600560003373ffffffffffffffffffffffffffffffffffffffff1673ffffffffffffffffffffffffffffffffffffffff16815260200190815260200160002081815481106120a9576120a8613663565b5b9060005260206000209060030201600080820160006120c891906124c5565b60018201600090556002820160006101000a81549060ff02191690556002820160016101000a81549060ff0219169055505061210333612302565b5b808061210f90613692565b915050611f5a565b5050565b60008054906101000a900473ffffffffffffffffffffffffffffffffffffffff1681565b600080600090505b600760008473ffffffffffffffffffffffffffffffffffffffff1673ffffffffffffffffffffffffffffffffffffffff1681526020019081526020016000208054905081101561221d576000600760008573ffffffffffffffffffffffffffffffffffffffff1673ffffffffffffffffffffffffffffffffffffffff16815260200190815260200160002082815481106121e4576121e3613663565b5b9060005260206000209060050201600101541461220a57818061220690613692565b9250505b808061221590613692565b915050612147565b50600081036122fe5760005b6006805490508110156122fc578273ffffffffffffffffffffffffffffffffffffffff166006828154811061226157612260613663565b5b9060005260206000200160009054906101000a900473ffffffffffffffffffffffffffffffffffffffff1673ffffffffffffffffffffffffffffffffffffffff16036122e957600681815481106122bb576122ba613663565b5b9060005260206000200160006101000a81549073ffffffffffffffffffffffffffffffffffffffff02191690555b80806122f490613692565b915050612229565b505b5050565b600080600090505b600560008473ffffffffffffffffffffffffffffffffffffffff1673ffffffffffffffffffffffffffffffffffffffff168152602001908152602001600020805490508110156123e0576000600560008573ffffffffffffffffffffffffffffffffffffffff1673ffffffffffffffffffffffffffffffffffffffff16815260200190815260200160002082815481106123a7576123a6613663565b5b906000526020600020906003020160010154146123cd5781806123c990613692565b9250505b80806123d890613692565b91505061230a565b50600081036124c15760005b6004805490508110156124bf578273ffffffffffffffffffffffffffffffffffffffff166004828154811061242457612423613663565b5b9060005260206000200160009054906101000a900473ffffffffffffffffffffffffffffffffffffffff1673ffffffffffffffffffffffffffffffffffffffff16036124ac576004818154811061247e5761247d613663565b5b9060005260206000200160006101000a81549073ffffffffffffffffffffffffffffffffffffffff02191690555b80806124b790613692565b9150506123ec565b505b5050565b5080546124d190613322565b6000825580601f106124e35750612502565b601f0160209004906000526020600020908101906125019190612505565b5b50565b5b8082111561251e576000816000905550600101612506565b5090565b6000604051905090565b600080fd5b600080fd5b600080fd5b600080fd5b6000601f19601f8301169050919050565b7f4e487b7100000000000000000000000000000000000000000000000000000000600052604160045260246000fd5b61258982612540565b810181811067ffffffffffffffff821117156125a8576125a7612551565b5b80604052505050565b60006125bb612522565b90506125c78282612580565b919050565b600067ffffffffffffffff8211156125e7576125e6612551565b5b6125f082612540565b9050602081019050919050565b82818337600083830152505050565b600061261f61261a846125cc565b6125b1565b90508281526020810184848401111561263b5761263a61253b565b5b6126468482856125fd565b509392505050565b600082601f83011261266357612662612536565b5b813561267384826020860161260c565b91505092915050565b6000819050919050565b61268f8161267c565b811461269a57600080fd5b50565b6000813590506126ac81612686565b92915050565b60008115159050919050565b6126c7816126b2565b81146126d257600080fd5b50565b6000813590506126e4816126be565b92915050565b600080600080600060a086880312156127065761270561252c565b5b600086013567ffffffffffffffff81111561272457612723612531565b5b6127308882890161264e565b955050602086013567ffffffffffffffff81111561275157612750612531565b5b61275d8882890161264e565b945050604086013567ffffffffffffffff81111561277e5761277d612531565b5b61278a8882890161264e565b935050606061279b8882890161269d565b92505060806127ac888289016126d5565b9150509295509295909350565b600080fd5b600080fd5b60008083601f8401126127d9576127d8612536565b5b8235905067ffffffffffffffff8111156127f6576127f56127b9565b5b602083019150836020820283011115612812576128116127be565b5b9250929050565b600080602083850312156128305761282f61252c565b5b600083013567ffffffffffffffff81111561284e5761284d612531565b5b61285a858286016127c3565b92509250509250929050565b600073ffffffffffffffffffffffffffffffffffffffff82169050919050565b600061289182612866565b9050919050565b6128a181612886565b81146128ac57600080fd5b50565b6000813590506128be81612898565b92915050565b6000602082840312156128da576128d961252c565b5b60006128e8848285016128af565b91505092915050565b6128fa816126b2565b82525050565b600060208201905061291560008301846128f1565b92915050565b6000602082840312156129315761293061252c565b5b600061293f8482850161269d565b91505092915050565b61295181612886565b82525050565b600060208201905061296c6000830184612948565b92915050565b600080604083850312156129895761298861252c565b5b6000612997858286016128af565b92505060206129a88582860161269d565b9150509250929050565b600081519050919050565b600082825260208201905092915050565b60005b838110156129ec5780820151818401526020810190506129d1565b838111156129fb576000848401525b50505050565b6000612a0c826129b2565b612a1681856129bd565b9350612a268185602086016129ce565b612a2f81612540565b840191505092915050565b612a438161267c565b82525050565b60006080820190508181036000830152612a638187612a01565b9050612a726020830186612a3a565b612a7f60408301856128f1565b612a8c60608301846128f1565b95945050505050565b600080600060608486031215612aae57612aad61252c565b5b600084013567ffffffffffffffff811115612acc57612acb612531565b5b612ad88682870161264e565b9350506020612ae98682870161269d565b9250506040612afa868287016126d5565b9150509250925092565b60008060408385031215612b1b57612b1a61252c565b5b600083013567ffffffffffffffff811115612b3957612b38612531565b5b612b458582860161264e565b9250506020612b56858286016126d5565b9150509250929050565b600060208284031215612b7657612b7561252c565b5b600082013567ffffffffffffffff811115612b9457612b93612531565b5b612ba08482850161264e565b91505092915050565b600081519050919050565b600082825260208201905092915050565b6000819050602082019050919050565b600082825260208201905092915050565b6000612bf1826129b2565b612bfb8185612bd5565b9350612c0b8185602086016129ce565b612c1481612540565b840191505092915050565b612c288161267c565b82525050565b612c37816126b2565b82525050565b60006080830160008301518482036000860152612c5a8282612be6565b9150506020830151612c6f6020860182612c1f565b506040830151612c826040860182612c2e565b506060830151612c956060860182612c2e565b508091505092915050565b6000612cac8383612c3d565b905092915050565b6000602082019050919050565b6000612ccc82612ba9565b612cd68185612bb4565b935083602082028501612ce885612bc5565b8060005b85811015612d245784840389528151612d058582612ca0565b9450612d1083612cb4565b925060208a01995050600181019050612cec565b50829750879550505050505092915050565b60006020820190508181036000830152612d508184612cc1565b905092915050565b6000602082019050612d6d6000830184612a3a565b92915050565b600060a0820190508181036000830152612d8d8188612a01565b9050612d9c6020830187612a3a565b8181036040830152612dae8186612a01565b90508181036060830152612dc28185612a01565b9050612dd160808301846128f1565b9695505050505050565b60008060408385031215612df257612df161252c565b5b600083013567ffffffffffffffff811115612e1057612e0f612531565b5b612e1c8582860161264e565b9250506020612e2d8582860161269d565b9150509250929050565b600067ffffffffffffffff821115612e5257612e51612551565b5b602082029050602081019050919050565b6000612e76612e7184612e37565b6125b1565b90508083825260208201905060208402830185811115612e9957612e986127be565b5b835b81811015612ee057803567ffffffffffffffff811115612ebe57612ebd612536565b5b808601612ecb898261264e565b85526020850194505050602081019050612e9b565b5050509392505050565b600082601f830112612eff57612efe612536565b5b8135612f0f848260208601612e63565b91505092915050565b600067ffffffffffffffff821115612f3357612f32612551565b5b602082029050602081019050919050565b6000612f57612f5284612f18565b6125b1565b90508083825260208201905060208402830185811115612f7a57612f796127be565b5b835b81811015612fa35780612f8f888261269d565b845260208401935050602081019050612f7c565b5050509392505050565b600082601f830112612fc257612fc1612536565b5b8135612fd2848260208601612f44565b91505092915050565b60008060408385031215612ff257612ff161252c565b5b600083013567ffffffffffffffff8111156130105761300f612531565b5b61301c85828601612eea565b925050602083013567ffffffffffffffff81111561303d5761303c612531565b5b61304985828601612fad565b9150509250929050565b6000806040838503121561306a5761306961252c565b5b6000613078858286016128af565b925050602083013567ffffffffffffffff81111561309957613098612531565b5b6130a58582860161264e565b9150509250929050565b600081519050919050565b600082825260208201905092915050565b6000819050602082019050919050565b600060a08301600083015184820360008601526130f88282612be6565b915050602083015161310d6020860182612c1f565b50604083015184820360408601526131258282612be6565b9150506060830151848203606086015261313f8282612be6565b91505060808301516131546080860182612c2e565b508091505092915050565b600061316b83836130db565b905092915050565b6000602082019050919050565b600061318b826130af565b61319581856130ba565b9350836020820285016131a7856130cb565b8060005b858110156131e357848403895281516131c4858261315f565b94506131cf83613173565b925060208a019950506001810190506131ab565b50829750879550505050505092915050565b6000602082019050818103600083015261320f8184613180565b905092915050565b600081905092915050565b600061322d826129b2565b6132378185613217565b93506132478185602086016129ce565b80840191505092915050565b600061325f8284613222565b915081905092915050565b7f4e487b7100000000000000000000000000000000000000000000000000000000600052601160045260246000fd5b60006132a48261267c565b91506132af8361267c565b9250817fffffffffffffffffffffffffffffffffffffffffffffffffffffffffffffffff04831182151516156132e8576132e761326a565b5b828202905092915050565b7f4e487b7100000000000000000000000000000000000000000000000000000000600052602260045260246000fd5b6000600282049050600182168061333a57607f821691505b60208210810361334d5761334c6132f3565b5b50919050565b60008190508160005260206000209050919050565b60006020601f8301049050919050565b600082821b905092915050565b6000600883026133b57fffffffffffffffffffffffffffffffffffffffffffffffffffffffffffffffff82613378565b6133bf8683613378565b95508019841693508086168417925050509392505050565b6000819050919050565b60006133fc6133f76133f28461267c565b6133d7565b61267c565b9050919050565b6000819050919050565b613416836133e1565b61342a61342282613403565b848454613385565b825550505050565b600090565b61343f613432565b61344a81848461340d565b505050565b5b8181101561346e57613463600082613437565b600181019050613450565b5050565b601f8211156134b35761348481613353565b61348d84613368565b8101602085101561349c578190505b6134b06134a885613368565b83018261344f565b50505b505050565b600082821c905092915050565b60006134d6600019846008026134b8565b1980831691505092915050565b60006134ef83836134c5565b9150826002028217905092915050565b613508826129b2565b67ffffffffffffffff81111561352157613520612551565b5b61352b8254613322565b613536828285613472565b600060209050601f8311600181146135695760008415613557578287015190505b61356185826134e3565b8655506135c9565b601f19841661357786613353565b60005b8281101561359f5784890151825560018201915060208501945060208101905061357a565b868310156135bc57848901516135b8601f8916826134c5565b8355505b6001600288020188555050505b505050505050565b7f546869732066756e6374696f6e206973207265737472696374656420746f207460008201527f686520636f6e747261637427732061646d696e00000000000000000000000000602082015250565b600061362d6033836129bd565b9150613638826135d1565b604082019050919050565b6000602082019050818103600083015261365c81613620565b9050919050565b7f4e487b7100000000000000000000000000000000000000000000000000000000600052603260045260246000fd5b600061369d8261267c565b91507fffffffffffffffffffffffffffffffffffffffffffffffffffffffffffffffff82036136cf576136ce61326a565b5b600182019050919050565b600081546136e781613322565b6136f18186613217565b9450600182166000811461370c576001811461372157613754565b60ff1983168652811515820286019350613754565b61372a85613353565b60005b8381101561374c5781548189015260018201915060208101905061372d565b838801955050505b50505092915050565b600061376982846136da565b915081905092915050565b7f546869732066756e6374696f6e206973207265737472696374656420746f207460008201527f686520636f6e7472616374277320537461666600000000000000000000000000602082015250565b60006137d06033836129bd565b91506137db82613774565b604082019050919050565b600060208201905081810360008301526137ff816137c3565b905091905056fea264697066735822122042e547730d3baefe9ba02d5349e28258dd8e0637407bf4433e084afcf5aee9da64736f6c634300080f0033",
  "immutableReferences": {},
  "source": "// SPDX-License-Identifier: MIT\npragma solidity >=0.4.22 <0.9.0;\n\nimport \"./Authorized.sol\";\n\ncontract Amazon is Authorized {\n    mapping(string => uint256) public itemsInStoke;\n\n    struct CartItem {\n        string itemName;\n        uint256 Quantity;\n        bool inStoke;\n        bool isGeft;\n    }\n    address[] public UsersWhoPushItemsToCart;\n\n    mapping(address => CartItem[]) public CartItemsOfOwner;\n\n    struct order {\n        string itemName;\n        uint256 Quantity;\n        string addressTo;\n        string message;\n        bool isGeft;\n    }\n    address[] public UsersWhoRequested;\n\n    mapping(address => order[]) public UsersOrders;\n\n    function addItemsToStoke(\n        string[] memory _itemsName,\n        uint256[] memory _ItemsPrice\n    ) public onlyStaff {\n        for (uint256 i = 0; i < _itemsName.length; i++) {\n            itemsInStoke[_itemsName[i]] = _ItemsPrice[i];\n        }\n    }\n\n    function removeItemFromStoke(string memory _itemName) public onlyStaff {\n        delete itemsInStoke[_itemName];\n    }\n\n    function addItemsToCart(\n        string memory _itemName,\n        uint256 _Quantity,\n        bool _isGeft\n    ) public {\n        bool _inStoke;\n        if (itemsInStoke[_itemName] > 0) {\n            _inStoke = true;\n        }\n\n        CartItemsOfOwner[msg.sender].push(\n            CartItem(_itemName, _Quantity, _inStoke, _isGeft)\n        );\n        UsersWhoPushItemsToCart.push(msg.sender);\n    }\n\n    // check Cart Items of adderss is it empty\n    function checkCartItems(address _user) private {\n        uint256 itemsLength;\n        for (uint256 i = 0; i < CartItemsOfOwner[_user].length; i++) {\n            if (CartItemsOfOwner[_user][i].Quantity != 0) {\n                itemsLength++;\n            }\n        }\n        if (itemsLength == 0) {\n            for (uint256 i = 0; i < UsersWhoPushItemsToCart.length; i++) {\n                if (UsersWhoPushItemsToCart[i] == _user) {\n                    delete UsersWhoPushItemsToCart[i];\n                }\n            }\n        }\n    }\n\n    function removetemsFromCart(string memory _itemName) public {\n        require(CartItemsOfOwner[msg.sender].length > 0);\n        for (uint256 i = 0; i < CartItemsOfOwner[msg.sender].length; i++) {\n            if (\n                keccak256(\n                    abi.encodePacked(CartItemsOfOwner[msg.sender][i].itemName)\n                ) == keccak256(abi.encodePacked(_itemName))\n            ) {\n                delete CartItemsOfOwner[msg.sender][i];\n                checkCartItems(msg.sender);\n            }\n        }\n    }\n\n    function changeQuantity(string memory _itemName, uint256 _Quantity) public {\n        require(CartItemsOfOwner[msg.sender].length > 0);\n        require(_Quantity > 0);\n\n        for (uint256 i = 0; i < CartItemsOfOwner[msg.sender].length; i++) {\n            if (\n                keccak256(\n                    abi.encodePacked(CartItemsOfOwner[msg.sender][i].itemName)\n                ) ==\n                keccak256(abi.encodePacked(_itemName)) ||\n                CartItemsOfOwner[msg.sender][i].Quantity != _Quantity\n            ) {\n                CartItemsOfOwner[msg.sender][i].Quantity = _Quantity;\n            }\n        }\n    }\n\n    function setGift(string memory _itemName, bool _isGeft) public {\n        require(CartItemsOfOwner[msg.sender].length > 0);\n\n        for (uint256 i = 0; i < CartItemsOfOwner[msg.sender].length; i++) {\n            if (\n                keccak256(\n                    abi.encodePacked(CartItemsOfOwner[msg.sender][i].itemName)\n                ) ==\n                keccak256(abi.encodePacked(_itemName)) ||\n                CartItemsOfOwner[msg.sender][i].isGeft != _isGeft\n            ) {\n                CartItemsOfOwner[msg.sender][i].isGeft = _isGeft;\n            }\n        }\n    }\n\n  function isUsersHasItemsInCart(address _user)\n        public\n        view\n        returns (bool _hasItemsInCart)\n    {\n        for (uint256 i = 0; i < UsersWhoPushItemsToCart.length; i++) {\n            if (UsersWhoPushItemsToCart[i] == _user) {\n                _hasItemsInCart = true;\n            }\n        }\n        return _hasItemsInCart;\n    }\n\n    function getCartItemsOfOwner(address _userAddress)\n        public\n        view\n        returns (CartItem[] memory _CartItemsOfOwner )\n    {\n      if(isUsersHasItemsInCart(_userAddress)){\n        _CartItemsOfOwner = CartItemsOfOwner[_userAddress];\n      }\n        return _CartItemsOfOwner;\n    }\n\n    function isUsersHasOrders(address _user)\n        public\n        view\n        returns (bool _UsersHasOrders)\n    {\n        for (uint256 i = 0; i < UsersWhoRequested.length; i++) {\n            if (UsersWhoRequested[i] == _user) {\n                _UsersHasOrders = true;\n            }\n        }\n        return _UsersHasOrders;\n    }\n function getUsersOrders(address _userAddress)\n        public\n        view\n        returns (order[] memory _orders)\n    {\n      if(isUsersHasOrders(_userAddress)){\n        _orders = UsersOrders[_userAddress];\n      }\n        return _orders;\n    }\n    function buyItem(\n        string memory _itemName,\n        string memory _DeliveryAddress,\n        string memory _message,\n        uint256 _Quantity,\n        bool isGeft\n    ) public payable {\n        require(itemsInStoke[_itemName] > 0);\n        require(msg.value >= (itemsInStoke[_itemName] * _Quantity));\n\n        UsersOrders[msg.sender].push(\n            order(_itemName, _Quantity, _DeliveryAddress, _message, isGeft)\n        );\n        UsersWhoRequested.push(msg.sender);\n    }\n\n    // check Users Orders of adderss is it empty\n    function checkUsersOrders(address _user) private {\n         uint256 _UsersOrders;\n        for (uint256 i = 0; i < UsersOrders[_user].length; i++) {\n            if (UsersOrders[_user][i].Quantity != 0) {\n                _UsersOrders++;\n            }\n        }\n        if (_UsersOrders == 0) {\n            for (uint256 i = 0; i < UsersWhoRequested.length; i++) {\n                if (UsersWhoRequested[i] == _user) {\n                    delete UsersWhoRequested[i];\n                }\n            }\n        }\n    }\n\n    // The request has been sent successfully\n\n    function requestSent(address _address, string memory _itemName)\n        public\n        onlyStaff\n    {\n        for (uint256 i = 0; i < UsersOrders[_address].length; i++) {\n            if (\n                keccak256(\n                    abi.encodePacked(UsersOrders[_address][i].itemName)\n                ) == keccak256(abi.encodePacked(_itemName))\n            ) {\n                delete UsersOrders[_address][i];\n                checkUsersOrders(_address);\n            }\n        }\n    }\n\n    function getProfits() public onlyAdmin {\n        payable(msg.sender).transfer(address(this).balance);\n    }\n}\n",
  "sourcePath": "C:\\Users\\hamza\\Desktop\\web3-tasks\\9_amazon_web3\\contracts\\Amazon.sol",
  "compiler": {
    "name": "solc",
    "version": "0.8.15+commit.e14f2714.Emscripten.clang"
  },
  "schemaVersion": "3.4.8",
  "updatedAt": "2022-07-26T01:38:57.698Z",
  "networkType": "ethereum",
  "devdoc": {
    "kind": "dev",
    "methods": {},
    "version": 1
  },
  "userdoc": {
    "kind": "user",
    "methods": {},
    "version": 1
  }
}