{
  "contractName": "Authorized",
  "abi": [
    {
      "inputs": [],
      "stateMutability": "nonpayable",
      "type": "constructor"
    },
    {
      "inputs": [],
      "name": "admin",
      "outputs": [
        {
          "internalType": "address",
          "name": "",
          "type": "address"
        }
      ],
      "stateMutability": "view",
      "type": "function",
      "constant": true
    },
    {
      "inputs": [],
      "name": "price",
      "outputs": [
        {
          "internalType": "uint256",
          "name": "",
          "type": "uint256"
        }
      ],
      "stateMutability": "view",
      "type": "function",
      "constant": true
    },
    {
      "inputs": [
        {
          "internalType": "address",
          "name": "",
          "type": "address"
        }
      ],
      "name": "staff",
      "outputs": [
        {
          "internalType": "bool",
          "name": "",
          "type": "bool"
        }
      ],
      "stateMutability": "view",
      "type": "function",
      "constant": true
    },
    {
      "inputs": [
        {
          "internalType": "address",
          "name": "_newAdmin",
          "type": "address"
        }
      ],
      "name": "changeAdmin",
      "outputs": [],
      "stateMutability": "nonpayable",
      "type": "function"
    },
    {
      "inputs": [
        {
          "internalType": "address[]",
          "name": "_newStaff",
          "type": "address[]"
        }
      ],
      "name": "addStaff",
      "outputs": [],
      "stateMutability": "nonpayable",
      "type": "function"
    },
    {
      "inputs": [
        {
          "internalType": "address",
          "name": "_Staff",
          "type": "address"
        }
      ],
      "name": "removeStaff",
      "outputs": [],
      "stateMutability": "nonpayable",
      "type": "function"
    }
  ],
  "bytecode": "0x608060405234801561001057600080fd5b50336000806101000a81548173ffffffffffffffffffffffffffffffffffffffff021916908373ffffffffffffffffffffffffffffffffffffffff1602179055506001600260003373ffffffffffffffffffffffffffffffffffffffff1673ffffffffffffffffffffffffffffffffffffffff16815260200190815260200160002060006101000a81548160ff021916908315150217905550652d79883d2000600181905550610807806100c56000396000f3fe608060405234801561001057600080fd5b50600436106100625760003560e01c80633e3c6093146100675780634f83158a146100835780638f283970146100b3578063a035b1fe146100cf578063c4522c92146100ed578063f851a44014610109575b600080fd5b610081600480360381019061007c919061051c565b610127565b005b61009d600480360381019061009891906105c7565b61025a565b6040516100aa919061060f565b60405180910390f35b6100cd60048036038101906100c891906105c7565b61027a565b005b6100d76103a3565b6040516100e49190610643565b60405180910390f35b610107600480360381019061010291906105c7565b6103a9565b005b610111610489565b60405161011e919061066d565b60405180910390f35b60008054906101000a900473ffffffffffffffffffffffffffffffffffffffff1673ffffffffffffffffffffffffffffffffffffffff163373ffffffffffffffffffffffffffffffffffffffff16146101b5576040517f08c379a00000000000000000000000000000000000000000000000000000000081526004016101ac9061070b565b60405180910390fd5b60005b82829050811015610255576001600260008585858181106101dc576101db61072b565b5b90506020020160208101906101f191906105c7565b73ffffffffffffffffffffffffffffffffffffffff1673ffffffffffffffffffffffffffffffffffffffff16815260200190815260200160002060006101000a81548160ff021916908315150217905550808061024d90610789565b9150506101b8565b505050565b60026020528060005260406000206000915054906101000a900460ff1681565b60008054906101000a900473ffffffffffffffffffffffffffffffffffffffff1673ffffffffffffffffffffffffffffffffffffffff163373ffffffffffffffffffffffffffffffffffffffff1614610308576040517f08c379a00000000000000000000000000000000000000000000000000000000081526004016102ff9061070b565b60405180910390fd5b806000806101000a81548173ffffffffffffffffffffffffffffffffffffffff021916908373ffffffffffffffffffffffffffffffffffffffff1602179055506001600260008373ffffffffffffffffffffffffffffffffffffffff1673ffffffffffffffffffffffffffffffffffffffff16815260200190815260200160002060006101000a81548160ff02191690831515021790555050565b60015481565b60008054906101000a900473ffffffffffffffffffffffffffffffffffffffff1673ffffffffffffffffffffffffffffffffffffffff163373ffffffffffffffffffffffffffffffffffffffff1614610437576040517f08c379a000000000000000000000000000000000000000000000000000000000815260040161042e9061070b565b60405180910390fd5b600260008273ffffffffffffffffffffffffffffffffffffffff1673ffffffffffffffffffffffffffffffffffffffff16815260200190815260200160002060006101000a81549060ff021916905550565b60008054906101000a900473ffffffffffffffffffffffffffffffffffffffff1681565b600080fd5b600080fd5b600080fd5b600080fd5b600080fd5b60008083601f8401126104dc576104db6104b7565b5b8235905067ffffffffffffffff8111156104f9576104f86104bc565b5b602083019150836020820283011115610515576105146104c1565b5b9250929050565b60008060208385031215610533576105326104ad565b5b600083013567ffffffffffffffff811115610551576105506104b2565b5b61055d858286016104c6565b92509250509250929050565b600073ffffffffffffffffffffffffffffffffffffffff82169050919050565b600061059482610569565b9050919050565b6105a481610589565b81146105af57600080fd5b50565b6000813590506105c18161059b565b92915050565b6000602082840312156105dd576105dc6104ad565b5b60006105eb848285016105b2565b91505092915050565b60008115159050919050565b610609816105f4565b82525050565b60006020820190506106246000830184610600565b92915050565b6000819050919050565b61063d8161062a565b82525050565b60006020820190506106586000830184610634565b92915050565b61066781610589565b82525050565b6000602082019050610682600083018461065e565b92915050565b600082825260208201905092915050565b7f546869732066756e6374696f6e206973207265737472696374656420746f207460008201527f686520636f6e747261637427732061646d696e00000000000000000000000000602082015250565b60006106f5603383610688565b915061070082610699565b604082019050919050565b60006020820190508181036000830152610724816106e8565b9050919050565b7f4e487b7100000000000000000000000000000000000000000000000000000000600052603260045260246000fd5b7f4e487b7100000000000000000000000000000000000000000000000000000000600052601160045260246000fd5b60006107948261062a565b91507fffffffffffffffffffffffffffffffffffffffffffffffffffffffffffffffff82036107c6576107c561075a565b5b60018201905091905056fea26469706673582212205fbda155e83d22fce005a17ba3f54d763a9c3cd431a994252ca470fe2b784eea64736f6c634300080f0033",
  "immutableReferences": {},
  "source": "// SPDX-License-Identifier: MIT\npragma solidity >=0.4.22 <0.9.0;\n\ncontract Authorized {\n    address public admin;\n    uint256 public price;\n\n    mapping(address => bool) public staff;\n\n    constructor() {\n        admin = msg.sender;\n        staff[msg.sender] = true;\n        price = 50000000000000;  // 50000000000000 BNB or ETH to Wei = 1 USD , This is only an assumption\n    }\n\n    modifier onlyAdmin() {\n        require(\n            msg.sender == admin,\n            \"This function is restricted to the contract's admin\"\n        );\n        _;\n    }\n\n    modifier onlyStaff() {\n        require(\n            staff[msg.sender],\n            \"This function is restricted to the contract's Staff\"\n        );\n        _;\n    }\n\n    function changeAdmin(address _newAdmin) public onlyAdmin {\n        admin = _newAdmin;\n        staff[_newAdmin] = true;\n    }\n\n    function addStaff(address[] calldata _newStaff) public onlyAdmin {\n        for (uint256 i = 0; i < _newStaff.length; i++) {\n            staff[_newStaff[i]] = true;\n        }\n    }\n\n    function removeStaff(address _Staff) public onlyAdmin {\n        delete staff[_Staff];\n    }\n\n\n\n}\n",
  "sourcePath": "C:\\Users\\hamza\\Desktop\\web3-tasks\\9_amazon_web3\\contracts\\Authorized.sol",
  "compiler": {
    "name": "solc",
    "version": "0.8.15+commit.e14f2714.Emscripten.clang"
  },
  "schemaVersion": "3.4.8",
  "updatedAt": "2022-07-27T02:44:26.857Z",
  "networkType": "ethereum",
  "devdoc": {
    "kind": "dev",
    "methods": {},
    "version": 1
  },
  "userdoc": {
    "kind": "user",
    "methods": {},
    "version": 1
  }
}